{
  "_format": "hh-sol-artifact-1",
  "contractName": "Token",
  "sourceName": "contracts/Token.sol",
  "abi": [
    {
      "inputs": [],
      "stateMutability": "nonpayable",
      "type": "constructor"
    },
    {
      "anonymous": false,
      "inputs": [
        {
          "indexed": true,
          "internalType": "address",
          "name": "owner",
          "type": "address"
        },
        {
          "indexed": true,
          "internalType": "address",
          "name": "spender",
          "type": "address"
        },
        {
          "indexed": false,
          "internalType": "uint256",
          "name": "value",
          "type": "uint256"
        }
      ],
      "name": "Approval",
      "type": "event"
    },
    {
      "anonymous": false,
      "inputs": [
        {
          "indexed": true,
          "internalType": "bytes32",
          "name": "role",
          "type": "bytes32"
        },
        {
          "indexed": true,
          "internalType": "bytes32",
          "name": "previousAdminRole",
          "type": "bytes32"
        },
        {
          "indexed": true,
          "internalType": "bytes32",
          "name": "newAdminRole",
          "type": "bytes32"
        }
      ],
      "name": "RoleAdminChanged",
      "type": "event"
    },
    {
      "anonymous": false,
      "inputs": [
        {
          "indexed": true,
          "internalType": "bytes32",
          "name": "role",
          "type": "bytes32"
        },
        {
          "indexed": true,
          "internalType": "address",
          "name": "account",
          "type": "address"
        },
        {
          "indexed": true,
          "internalType": "address",
          "name": "sender",
          "type": "address"
        }
      ],
      "name": "RoleGranted",
      "type": "event"
    },
    {
      "anonymous": false,
      "inputs": [
        {
          "indexed": true,
          "internalType": "bytes32",
          "name": "role",
          "type": "bytes32"
        },
        {
          "indexed": true,
          "internalType": "address",
          "name": "account",
          "type": "address"
        },
        {
          "indexed": true,
          "internalType": "address",
          "name": "sender",
          "type": "address"
        }
      ],
      "name": "RoleRevoked",
      "type": "event"
    },
    {
      "anonymous": false,
      "inputs": [
        {
          "indexed": true,
          "internalType": "address",
          "name": "from",
          "type": "address"
        },
        {
          "indexed": true,
          "internalType": "address",
          "name": "to",
          "type": "address"
        },
        {
          "indexed": false,
          "internalType": "uint256",
          "name": "value",
          "type": "uint256"
        }
      ],
      "name": "Transfer",
      "type": "event"
    },
    {
      "inputs": [],
      "name": "DEFAULT_ADMIN_ROLE",
      "outputs": [
        {
          "internalType": "bytes32",
          "name": "",
          "type": "bytes32"
        }
      ],
      "stateMutability": "view",
      "type": "function"
    },
    {
      "inputs": [],
      "name": "MINTER_ROLE",
      "outputs": [
        {
          "internalType": "bytes32",
          "name": "",
          "type": "bytes32"
        }
      ],
      "stateMutability": "view",
      "type": "function"
    },
    {
      "inputs": [
        {
          "internalType": "address",
          "name": "account",
          "type": "address"
        }
      ],
      "name": "addMinter",
      "outputs": [],
      "stateMutability": "nonpayable",
      "type": "function"
    },
    {
      "inputs": [
        {
          "internalType": "address",
          "name": "owner",
          "type": "address"
        },
        {
          "internalType": "address",
          "name": "spender",
          "type": "address"
        }
      ],
      "name": "allowance",
      "outputs": [
        {
          "internalType": "uint256",
          "name": "",
          "type": "uint256"
        }
      ],
      "stateMutability": "view",
      "type": "function"
    },
    {
      "inputs": [
        {
          "internalType": "address",
          "name": "spender",
          "type": "address"
        },
        {
          "internalType": "uint256",
          "name": "amount",
          "type": "uint256"
        }
      ],
      "name": "approve",
      "outputs": [
        {
          "internalType": "bool",
          "name": "",
          "type": "bool"
        }
      ],
      "stateMutability": "nonpayable",
      "type": "function"
    },
    {
      "inputs": [
        {
          "internalType": "address",
          "name": "account",
          "type": "address"
        }
      ],
      "name": "balanceOf",
      "outputs": [
        {
          "internalType": "uint256",
          "name": "",
          "type": "uint256"
        }
      ],
      "stateMutability": "view",
      "type": "function"
    },
    {
      "inputs": [],
      "name": "decimals",
      "outputs": [
        {
          "internalType": "uint8",
          "name": "",
          "type": "uint8"
        }
      ],
      "stateMutability": "view",
      "type": "function"
    },
    {
      "inputs": [
        {
          "internalType": "address",
          "name": "spender",
          "type": "address"
        },
        {
          "internalType": "uint256",
          "name": "subtractedValue",
          "type": "uint256"
        }
      ],
      "name": "decreaseAllowance",
      "outputs": [
        {
          "internalType": "bool",
          "name": "",
          "type": "bool"
        }
      ],
      "stateMutability": "nonpayable",
      "type": "function"
    },
    {
      "inputs": [
        {
          "internalType": "bytes32",
          "name": "role",
          "type": "bytes32"
        }
      ],
      "name": "getRoleAdmin",
      "outputs": [
        {
          "internalType": "bytes32",
          "name": "",
          "type": "bytes32"
        }
      ],
      "stateMutability": "view",
      "type": "function"
    },
    {
      "inputs": [
        {
          "internalType": "bytes32",
          "name": "role",
          "type": "bytes32"
        },
        {
          "internalType": "address",
          "name": "account",
          "type": "address"
        }
      ],
      "name": "grantRole",
      "outputs": [],
      "stateMutability": "nonpayable",
      "type": "function"
    },
    {
      "inputs": [
        {
          "internalType": "bytes32",
          "name": "role",
          "type": "bytes32"
        },
        {
          "internalType": "address",
          "name": "account",
          "type": "address"
        }
      ],
      "name": "hasRole",
      "outputs": [
        {
          "internalType": "bool",
          "name": "",
          "type": "bool"
        }
      ],
      "stateMutability": "view",
      "type": "function"
    },
    {
      "inputs": [
        {
          "internalType": "address",
          "name": "spender",
          "type": "address"
        },
        {
          "internalType": "uint256",
          "name": "addedValue",
          "type": "uint256"
        }
      ],
      "name": "increaseAllowance",
      "outputs": [
        {
          "internalType": "bool",
          "name": "",
          "type": "bool"
        }
      ],
      "stateMutability": "nonpayable",
      "type": "function"
    },
    {
      "inputs": [
        {
          "internalType": "address",
          "name": "to",
          "type": "address"
        },
        {
          "internalType": "uint256",
          "name": "amount",
          "type": "uint256"
        }
      ],
      "name": "mint",
      "outputs": [],
      "stateMutability": "nonpayable",
      "type": "function"
    },
    {
      "inputs": [],
      "name": "name",
      "outputs": [
        {
          "internalType": "string",
          "name": "",
          "type": "string"
        }
      ],
      "stateMutability": "view",
      "type": "function"
    },
    {
      "inputs": [
        {
          "internalType": "bytes32",
          "name": "role",
          "type": "bytes32"
        },
        {
          "internalType": "address",
          "name": "account",
          "type": "address"
        }
      ],
      "name": "renounceRole",
      "outputs": [],
      "stateMutability": "nonpayable",
      "type": "function"
    },
    {
      "inputs": [
        {
          "internalType": "bytes32",
          "name": "role",
          "type": "bytes32"
        },
        {
          "internalType": "address",
          "name": "account",
          "type": "address"
        }
      ],
      "name": "revokeRole",
      "outputs": [],
      "stateMutability": "nonpayable",
      "type": "function"
    },
    {
      "inputs": [
        {
          "internalType": "bytes4",
          "name": "interfaceId",
          "type": "bytes4"
        }
      ],
      "name": "supportsInterface",
      "outputs": [
        {
          "internalType": "bool",
          "name": "",
          "type": "bool"
        }
      ],
      "stateMutability": "view",
      "type": "function"
    },
    {
      "inputs": [],
      "name": "symbol",
      "outputs": [
        {
          "internalType": "string",
          "name": "",
          "type": "string"
        }
      ],
      "stateMutability": "view",
      "type": "function"
    },
    {
      "inputs": [],
      "name": "totalSupply",
      "outputs": [
        {
          "internalType": "uint256",
          "name": "",
          "type": "uint256"
        }
      ],
      "stateMutability": "view",
      "type": "function"
    },
    {
      "inputs": [
        {
          "internalType": "address",
          "name": "to",
          "type": "address"
        },
        {
          "internalType": "uint256",
          "name": "amount",
          "type": "uint256"
        }
      ],
      "name": "transfer",
      "outputs": [
        {
          "internalType": "bool",
          "name": "",
          "type": "bool"
        }
      ],
      "stateMutability": "nonpayable",
      "type": "function"
    },
    {
      "inputs": [
        {
          "internalType": "address",
          "name": "from",
          "type": "address"
        },
        {
          "internalType": "address",
          "name": "to",
          "type": "address"
        },
        {
          "internalType": "uint256",
          "name": "amount",
          "type": "uint256"
        }
      ],
      "name": "transferFrom",
      "outputs": [
        {
          "internalType": "bool",
          "name": "",
          "type": "bool"
        }
      ],
      "stateMutability": "nonpayable",
      "type": "function"
    }
  ],
  "bytecode": "0x60806040523480156200001157600080fd5b506040518060400160405280600a81526020017f4d657520546f6b656e20000000000000000000000000000000000000000000008152506040518060400160405280600381526020017f445548000000000000000000000000000000000000000000000000000000000081525081600390805190602001906200009692919062000264565b508060049080519060200190620000af92919062000264565b505050620000c76000801b33620000ff60201b60201c565b620000f97f9f2df0fed2c77648de5860a4cc508cd0818c85b8b8a1ab4ceeef8d981c8956a633620000ff60201b60201c565b62000378565b620001118282620001f160201b60201c565b620001ed5760016005600084815260200190815260200160002060000160008373ffffffffffffffffffffffffffffffffffffffff1673ffffffffffffffffffffffffffffffffffffffff16815260200190815260200160002060006101000a81548160ff021916908315150217905550620001926200025c60201b60201c565b73ffffffffffffffffffffffffffffffffffffffff168173ffffffffffffffffffffffffffffffffffffffff16837f2f8788117e7eff1d82e926ec794901d17c78024a50270940304540a733656f0d60405160405180910390a45b5050565b60006005600084815260200190815260200160002060000160008373ffffffffffffffffffffffffffffffffffffffff1673ffffffffffffffffffffffffffffffffffffffff16815260200190815260200160002060009054906101000a900460ff16905092915050565b600033905090565b828054620002729062000343565b90600052602060002090601f016020900481019282620002965760008555620002e2565b82601f10620002b157805160ff1916838001178555620002e2565b82800160010185558215620002e2579182015b82811115620002e1578251825591602001919060010190620002c4565b5b509050620002f19190620002f5565b5090565b5b8082111562000310576000816000905550600101620002f6565b5090565b7f4e487b7100000000000000000000000000000000000000000000000000000000600052602260045260246000fd5b600060028204905060018216806200035c57607f821691505b60208210810362000372576200037162000314565b5b50919050565b6121f680620003886000396000f3fe608060405234801561001057600080fd5b50600436106101375760003560e01c806340c10f19116100b8578063a217fddf1161007c578063a217fddf14610374578063a457c2d714610392578063a9059cbb146103c2578063d5391393146103f2578063d547741f14610410578063dd62ed3e1461042c57610137565b806340c10f19146102be57806370a08231146102da57806391d148541461030a57806395d89b411461033a578063983b2d561461035857610137565b8063248a9ca3116100ff578063248a9ca3146102085780632f2ff15d14610238578063313ce5671461025457806336568abe14610272578063395093511461028e57610137565b806301ffc9a71461013c57806306fdde031461016c578063095ea7b31461018a57806318160ddd146101ba57806323b872dd146101d8575b600080fd5b610156600480360381019061015191906115ca565b61045c565b6040516101639190611612565b60405180910390f35b6101746104d6565b60405161018191906116c6565b60405180910390f35b6101a4600480360381019061019f919061177c565b610568565b6040516101b19190611612565b60405180910390f35b6101c261058b565b6040516101cf91906117cb565b60405180910390f35b6101f260048036038101906101ed91906117e6565b610595565b6040516101ff9190611612565b60405180910390f35b610222600480360381019061021d919061186f565b6105c4565b60405161022f91906118ab565b60405180910390f35b610252600480360381019061024d91906118c6565b6105e4565b005b61025c610605565b6040516102699190611922565b60405180910390f35b61028c600480360381019061028791906118c6565b61060e565b005b6102a860048036038101906102a3919061177c565b610691565b6040516102b59190611612565b60405180910390f35b6102d860048036038101906102d3919061177c565b6106c8565b005b6102f460048036038101906102ef919061193d565b610701565b60405161030191906117cb565b60405180910390f35b610324600480360381019061031f91906118c6565b610749565b6040516103319190611612565b60405180910390f35b6103426107b4565b60405161034f91906116c6565b60405180910390f35b610372600480360381019061036d919061193d565b610846565b005b61037c61089e565b60405161038991906118ab565b60405180910390f35b6103ac60048036038101906103a7919061177c565b6108a5565b6040516103b99190611612565b60405180910390f35b6103dc60048036038101906103d7919061177c565b61091c565b6040516103e99190611612565b60405180910390f35b6103fa61093f565b60405161040791906118ab565b60405180910390f35b61042a600480360381019061042591906118c6565b610963565b005b6104466004803603810190610441919061196a565b610984565b60405161045391906117cb565b60405180910390f35b60007f7965db0b000000000000000000000000000000000000000000000000000000007bffffffffffffffffffffffffffffffffffffffffffffffffffffffff1916827bffffffffffffffffffffffffffffffffffffffffffffffffffffffff191614806104cf57506104ce82610a0b565b5b9050919050565b6060600380546104e5906119d9565b80601f0160208091040260200160405190810160405280929190818152602001828054610511906119d9565b801561055e5780601f106105335761010080835404028352916020019161055e565b820191906000526020600020905b81548152906001019060200180831161054157829003601f168201915b5050505050905090565b600080610573610a75565b9050610580818585610a7d565b600191505092915050565b6000600254905090565b6000806105a0610a75565b90506105ad858285610c46565b6105b8858585610cd2565b60019150509392505050565b600060056000838152602001908152602001600020600101549050919050565b6105ed826105c4565b6105f681610f48565b6106008383610f5c565b505050565b60006012905090565b610616610a75565b73ffffffffffffffffffffffffffffffffffffffff168173ffffffffffffffffffffffffffffffffffffffff1614610683576040517f08c379a000000000000000000000000000000000000000000000000000000000815260040161067a90611a7c565b60405180910390fd5b61068d828261103d565b5050565b60008061069c610a75565b90506106bd8185856106ae8589610984565b6106b89190611acb565b610a7d565b600191505092915050565b7f9f2df0fed2c77648de5860a4cc508cd0818c85b8b8a1ab4ceeef8d981c8956a66106f281610f48565b6106fc838361111f565b505050565b60008060008373ffffffffffffffffffffffffffffffffffffffff1673ffffffffffffffffffffffffffffffffffffffff168152602001908152602001600020549050919050565b60006005600084815260200190815260200160002060000160008373ffffffffffffffffffffffffffffffffffffffff1673ffffffffffffffffffffffffffffffffffffffff16815260200190815260200160002060009054906101000a900460ff16905092915050565b6060600480546107c3906119d9565b80601f01602080910402602001604051908101604052809291908181526020018280546107ef906119d9565b801561083c5780601f106108115761010080835404028352916020019161083c565b820191906000526020600020905b81548152906001019060200180831161081f57829003601f168201915b5050505050905090565b7f9f2df0fed2c77648de5860a4cc508cd0818c85b8b8a1ab4ceeef8d981c8956a661087081610f48565b61089a7f9f2df0fed2c77648de5860a4cc508cd0818c85b8b8a1ab4ceeef8d981c8956a683610f5c565b5050565b6000801b81565b6000806108b0610a75565b905060006108be8286610984565b905083811015610903576040517f08c379a00000000000000000000000000000000000000000000000000000000081526004016108fa90611b93565b60405180910390fd5b6109108286868403610a7d565b60019250505092915050565b600080610927610a75565b9050610934818585610cd2565b600191505092915050565b7f9f2df0fed2c77648de5860a4cc508cd0818c85b8b8a1ab4ceeef8d981c8956a681565b61096c826105c4565b61097581610f48565b61097f838361103d565b505050565b6000600160008473ffffffffffffffffffffffffffffffffffffffff1673ffffffffffffffffffffffffffffffffffffffff16815260200190815260200160002060008373ffffffffffffffffffffffffffffffffffffffff1673ffffffffffffffffffffffffffffffffffffffff16815260200190815260200160002054905092915050565b60007f01ffc9a7000000000000000000000000000000000000000000000000000000007bffffffffffffffffffffffffffffffffffffffffffffffffffffffff1916827bffffffffffffffffffffffffffffffffffffffffffffffffffffffff1916149050919050565b600033905090565b600073ffffffffffffffffffffffffffffffffffffffff168373ffffffffffffffffffffffffffffffffffffffff1603610aec576040517f08c379a0000000000000000000000000000000000000000000000000000000008152600401610ae390611c25565b60405180910390fd5b600073ffffffffffffffffffffffffffffffffffffffff168273ffffffffffffffffffffffffffffffffffffffff1603610b5b576040517f08c379a0000000000000000000000000000000000000000000000000000000008152600401610b5290611cb7565b60405180910390fd5b80600160008573ffffffffffffffffffffffffffffffffffffffff1673ffffffffffffffffffffffffffffffffffffffff16815260200190815260200160002060008473ffffffffffffffffffffffffffffffffffffffff1673ffffffffffffffffffffffffffffffffffffffff168152602001908152602001600020819055508173ffffffffffffffffffffffffffffffffffffffff168373ffffffffffffffffffffffffffffffffffffffff167f8c5be1e5ebec7d5bd14f71427d1e84f3dd0314c0f7b2291e5b200ac8c7c3b92583604051610c3991906117cb565b60405180910390a3505050565b6000610c528484610984565b90507fffffffffffffffffffffffffffffffffffffffffffffffffffffffffffffffff8114610ccc5781811015610cbe576040517f08c379a0000000000000000000000000000000000000000000000000000000008152600401610cb590611d23565b60405180910390fd5b610ccb8484848403610a7d565b5b50505050565b600073ffffffffffffffffffffffffffffffffffffffff168373ffffffffffffffffffffffffffffffffffffffff1603610d41576040517f08c379a0000000000000000000000000000000000000000000000000000000008152600401610d3890611db5565b60405180910390fd5b600073ffffffffffffffffffffffffffffffffffffffff168273ffffffffffffffffffffffffffffffffffffffff1603610db0576040517f08c379a0000000000000000000000000000000000000000000000000000000008152600401610da790611e47565b60405180910390fd5b610dbb838383611275565b60008060008573ffffffffffffffffffffffffffffffffffffffff1673ffffffffffffffffffffffffffffffffffffffff16815260200190815260200160002054905081811015610e41576040517f08c379a0000000000000000000000000000000000000000000000000000000008152600401610e3890611ed9565b60405180910390fd5b8181036000808673ffffffffffffffffffffffffffffffffffffffff1673ffffffffffffffffffffffffffffffffffffffff16815260200190815260200160002081905550816000808573ffffffffffffffffffffffffffffffffffffffff1673ffffffffffffffffffffffffffffffffffffffff168152602001908152602001600020600082825401925050819055508273ffffffffffffffffffffffffffffffffffffffff168473ffffffffffffffffffffffffffffffffffffffff167fddf252ad1be2c89b69c2b068fc378daa952ba7f163c4a11628f55a4df523b3ef84604051610f2f91906117cb565b60405180910390a3610f4284848461127a565b50505050565b610f5981610f54610a75565b61127f565b50565b610f668282610749565b6110395760016005600084815260200190815260200160002060000160008373ffffffffffffffffffffffffffffffffffffffff1673ffffffffffffffffffffffffffffffffffffffff16815260200190815260200160002060006101000a81548160ff021916908315150217905550610fde610a75565b73ffffffffffffffffffffffffffffffffffffffff168173ffffffffffffffffffffffffffffffffffffffff16837f2f8788117e7eff1d82e926ec794901d17c78024a50270940304540a733656f0d60405160405180910390a45b5050565b6110478282610749565b1561111b5760006005600084815260200190815260200160002060000160008373ffffffffffffffffffffffffffffffffffffffff1673ffffffffffffffffffffffffffffffffffffffff16815260200190815260200160002060006101000a81548160ff0219169083151502179055506110c0610a75565b73ffffffffffffffffffffffffffffffffffffffff168173ffffffffffffffffffffffffffffffffffffffff16837ff6391f5c32d9c69d2a47ea670b442974b53935d1edc7fd64eb21e047a839171b60405160405180910390a45b5050565b600073ffffffffffffffffffffffffffffffffffffffff168273ffffffffffffffffffffffffffffffffffffffff160361118e576040517f08c379a000000000000000000000000000000000000000000000000000000000815260040161118590611f45565b60405180910390fd5b61119a60008383611275565b80600260008282546111ac9190611acb565b92505081905550806000808473ffffffffffffffffffffffffffffffffffffffff1673ffffffffffffffffffffffffffffffffffffffff168152602001908152602001600020600082825401925050819055508173ffffffffffffffffffffffffffffffffffffffff16600073ffffffffffffffffffffffffffffffffffffffff167fddf252ad1be2c89b69c2b068fc378daa952ba7f163c4a11628f55a4df523b3ef8360405161125d91906117cb565b60405180910390a36112716000838361127a565b5050565b505050565b505050565b6112898282610749565b6113005761129681611304565b6112a48360001c6020611331565b6040516020016112b5929190612039565b6040516020818303038152906040526040517f08c379a00000000000000000000000000000000000000000000000000000000081526004016112f791906116c6565b60405180910390fd5b5050565b606061132a8273ffffffffffffffffffffffffffffffffffffffff16601460ff16611331565b9050919050565b6060600060028360026113449190612073565b61134e9190611acb565b67ffffffffffffffff811115611367576113666120cd565b5b6040519080825280601f01601f1916602001820160405280156113995781602001600182028036833780820191505090505b5090507f3000000000000000000000000000000000000000000000000000000000000000816000815181106113d1576113d06120fc565b5b60200101907effffffffffffffffffffffffffffffffffffffffffffffffffffffffffffff1916908160001a9053507f780000000000000000000000000000000000000000000000000000000000000081600181518110611435576114346120fc565b5b60200101907effffffffffffffffffffffffffffffffffffffffffffffffffffffffffffff1916908160001a905350600060018460026114759190612073565b61147f9190611acb565b90505b600181111561151f577f3031323334353637383961626364656600000000000000000000000000000000600f8616601081106114c1576114c06120fc565b5b1a60f81b8282815181106114d8576114d76120fc565b5b60200101907effffffffffffffffffffffffffffffffffffffffffffffffffffffffffffff1916908160001a905350600485901c9450806115189061212b565b9050611482565b5060008414611563576040517f08c379a000000000000000000000000000000000000000000000000000000000815260040161155a906121a0565b60405180910390fd5b8091505092915050565b600080fd5b60007fffffffff0000000000000000000000000000000000000000000000000000000082169050919050565b6115a781611572565b81146115b257600080fd5b50565b6000813590506115c48161159e565b92915050565b6000602082840312156115e0576115df61156d565b5b60006115ee848285016115b5565b91505092915050565b60008115159050919050565b61160c816115f7565b82525050565b60006020820190506116276000830184611603565b92915050565b600081519050919050565b600082825260208201905092915050565b60005b8381101561166757808201518184015260208101905061164c565b83811115611676576000848401525b50505050565b6000601f19601f8301169050919050565b60006116988261162d565b6116a28185611638565b93506116b2818560208601611649565b6116bb8161167c565b840191505092915050565b600060208201905081810360008301526116e0818461168d565b905092915050565b600073ffffffffffffffffffffffffffffffffffffffff82169050919050565b6000611713826116e8565b9050919050565b61172381611708565b811461172e57600080fd5b50565b6000813590506117408161171a565b92915050565b6000819050919050565b61175981611746565b811461176457600080fd5b50565b60008135905061177681611750565b92915050565b600080604083850312156117935761179261156d565b5b60006117a185828601611731565b92505060206117b285828601611767565b9150509250929050565b6117c581611746565b82525050565b60006020820190506117e060008301846117bc565b92915050565b6000806000606084860312156117ff576117fe61156d565b5b600061180d86828701611731565b935050602061181e86828701611731565b925050604061182f86828701611767565b9150509250925092565b6000819050919050565b61184c81611839565b811461185757600080fd5b50565b60008135905061186981611843565b92915050565b6000602082840312156118855761188461156d565b5b60006118938482850161185a565b91505092915050565b6118a581611839565b82525050565b60006020820190506118c0600083018461189c565b92915050565b600080604083850312156118dd576118dc61156d565b5b60006118eb8582860161185a565b92505060206118fc85828601611731565b9150509250929050565b600060ff82169050919050565b61191c81611906565b82525050565b60006020820190506119376000830184611913565b92915050565b6000602082840312156119535761195261156d565b5b600061196184828501611731565b91505092915050565b600080604083850312156119815761198061156d565b5b600061198f85828601611731565b92505060206119a085828601611731565b9150509250929050565b7f4e487b7100000000000000000000000000000000000000000000000000000000600052602260045260246000fd5b600060028204905060018216806119f157607f821691505b602082108103611a0457611a036119aa565b5b50919050565b7f416363657373436f6e74726f6c3a2063616e206f6e6c792072656e6f756e636560008201527f20726f6c657320666f722073656c660000000000000000000000000000000000602082015250565b6000611a66602f83611638565b9150611a7182611a0a565b604082019050919050565b60006020820190508181036000830152611a9581611a59565b9050919050565b7f4e487b7100000000000000000000000000000000000000000000000000000000600052601160045260246000fd5b6000611ad682611746565b9150611ae183611746565b9250827fffffffffffffffffffffffffffffffffffffffffffffffffffffffffffffffff03821115611b1657611b15611a9c565b5b828201905092915050565b7f45524332303a2064656372656173656420616c6c6f77616e63652062656c6f7760008201527f207a65726f000000000000000000000000000000000000000000000000000000602082015250565b6000611b7d602583611638565b9150611b8882611b21565b604082019050919050565b60006020820190508181036000830152611bac81611b70565b9050919050565b7f45524332303a20617070726f76652066726f6d20746865207a65726f2061646460008201527f7265737300000000000000000000000000000000000000000000000000000000602082015250565b6000611c0f602483611638565b9150611c1a82611bb3565b604082019050919050565b60006020820190508181036000830152611c3e81611c02565b9050919050565b7f45524332303a20617070726f766520746f20746865207a65726f20616464726560008201527f7373000000000000000000000000000000000000000000000000000000000000602082015250565b6000611ca1602283611638565b9150611cac82611c45565b604082019050919050565b60006020820190508181036000830152611cd081611c94565b9050919050565b7f45524332303a20696e73756666696369656e7420616c6c6f77616e6365000000600082015250565b6000611d0d601d83611638565b9150611d1882611cd7565b602082019050919050565b60006020820190508181036000830152611d3c81611d00565b9050919050565b7f45524332303a207472616e736665722066726f6d20746865207a65726f20616460008201527f6472657373000000000000000000000000000000000000000000000000000000602082015250565b6000611d9f602583611638565b9150611daa82611d43565b604082019050919050565b60006020820190508181036000830152611dce81611d92565b9050919050565b7f45524332303a207472616e7366657220746f20746865207a65726f206164647260008201527f6573730000000000000000000000000000000000000000000000000000000000602082015250565b6000611e31602383611638565b9150611e3c82611dd5565b604082019050919050565b60006020820190508181036000830152611e6081611e24565b9050919050565b7f45524332303a207472616e7366657220616d6f756e742065786365656473206260008201527f616c616e63650000000000000000000000000000000000000000000000000000602082015250565b6000611ec3602683611638565b9150611ece82611e67565b604082019050919050565b60006020820190508181036000830152611ef281611eb6565b9050919050565b7f45524332303a206d696e7420746f20746865207a65726f206164647265737300600082015250565b6000611f2f601f83611638565b9150611f3a82611ef9565b602082019050919050565b60006020820190508181036000830152611f5e81611f22565b9050919050565b600081905092915050565b7f416363657373436f6e74726f6c3a206163636f756e7420000000000000000000600082015250565b6000611fa6601783611f65565b9150611fb182611f70565b601782019050919050565b6000611fc78261162d565b611fd18185611f65565b9350611fe1818560208601611649565b80840191505092915050565b7f206973206d697373696e6720726f6c6520000000000000000000000000000000600082015250565b6000612023601183611f65565b915061202e82611fed565b601182019050919050565b600061204482611f99565b91506120508285611fbc565b915061205b82612016565b91506120678284611fbc565b91508190509392505050565b600061207e82611746565b915061208983611746565b9250817fffffffffffffffffffffffffffffffffffffffffffffffffffffffffffffffff04831182151516156120c2576120c1611a9c565b5b828202905092915050565b7f4e487b7100000000000000000000000000000000000000000000000000000000600052604160045260246000fd5b7f4e487b7100000000000000000000000000000000000000000000000000000000600052603260045260246000fd5b600061213682611746565b91506000820361214957612148611a9c565b5b600182039050919050565b7f537472696e67733a20686578206c656e67746820696e73756666696369656e74600082015250565b600061218a602083611638565b915061219582612154565b602082019050919050565b600060208201905081810360008301526121b98161217d565b905091905056fea2646970667358221220c31653932354dd9518ce4dc35c1d0cbe2190976a5f6eee2b9d039938b0713ed764736f6c634300080d0033",
  "linkReferences": {},
  "deployedLinkReferences": {}
}