{
  "_format": "hh-sol-artifact-1",
  "contractName": "TokenShop",
  "sourceName": "contracts/TokenShop.sol",
  "abi": [
    {
      "inputs": [
        {
          "internalType": "address",
          "name": "tokenAddress",
          "type": "address"
        }
      ],
      "stateMutability": "nonpayable",
      "type": "constructor"
    },
    {
      "inputs": [],
      "name": "getLatestPrice",
      "outputs": [
        {
          "internalType": "int256",
          "name": "",
          "type": "int256"
        }
      ],
      "stateMutability": "view",
      "type": "function"
    },
    {
      "inputs": [],
      "name": "minter",
      "outputs": [
        {
          "internalType": "contract TokenInterface",
          "name": "",
          "type": "address"
        }
      ],
      "stateMutability": "view",
      "type": "function"
    },
    {
      "inputs": [],
      "name": "owner",
      "outputs": [
        {
          "internalType": "address",
          "name": "",
          "type": "address"
        }
      ],
      "stateMutability": "view",
      "type": "function"
    },
    {
      "inputs": [
        {
          "internalType": "uint256",
          "name": "amountETH",
          "type": "uint256"
        }
      ],
      "name": "tokenAmount",
      "outputs": [
        {
          "internalType": "uint256",
          "name": "",
          "type": "uint256"
        }
      ],
      "stateMutability": "view",
      "type": "function"
    },
    {
      "inputs": [],
      "name": "tokenPrice",
      "outputs": [
        {
          "internalType": "uint256",
          "name": "",
          "type": "uint256"
        }
      ],
      "stateMutability": "view",
      "type": "function"
    },
    {
      "inputs": [],
      "name": "withdraw",
      "outputs": [],
      "stateMutability": "nonpayable",
      "type": "function"
    },
    {
      "stateMutability": "payable",
      "type": "receive"
    }
  ],
  "bytecode": "0x60806040526107d060025534801561001657600080fd5b50604051610acf380380610acf83398181016040528101906100389190610177565b80600160006101000a81548173ffffffffffffffffffffffffffffffffffffffff021916908373ffffffffffffffffffffffffffffffffffffffff16021790555073d4a33860578de61dbabdc8bfdb98fd742fa7028e6000806101000a81548173ffffffffffffffffffffffffffffffffffffffff021916908373ffffffffffffffffffffffffffffffffffffffff16021790555033600360006101000a81548173ffffffffffffffffffffffffffffffffffffffff021916908373ffffffffffffffffffffffffffffffffffffffff160217905550506101a4565b600080fd5b600073ffffffffffffffffffffffffffffffffffffffff82169050919050565b600061014482610119565b9050919050565b61015481610139565b811461015f57600080fd5b50565b6000815190506101718161014b565b92915050565b60006020828403121561018d5761018c610114565b5b600061019b84828501610162565b91505092915050565b61091c806101b36000396000f3fe6080604052600436106100595760003560e01c806307546172146101125780633ccfd60b1461013d57806345ab331e146101545780637ff9b596146101915780638da5cb5b146101bc5780638e15f473146101e75761010d565b3661010d57600061006934610212565b9050600160009054906101000a900473ffffffffffffffffffffffffffffffffffffffff1673ffffffffffffffffffffffffffffffffffffffff166340c10f1933836040518363ffffffff1660e01b81526004016100c89291906104b2565b6020604051808303816000875af11580156100e7573d6000803e3d6000fd5b505050506040513d601f19601f8201168201806040525081019061010b9190610518565b005b600080fd5b34801561011e57600080fd5b5061012761026c565b60405161013491906105a4565b60405180910390f35b34801561014957600080fd5b50610152610292565b005b34801561016057600080fd5b5061017b600480360381019061017691906105eb565b610212565b6040516101889190610618565b60405180910390f35b34801561019d57600080fd5b506101a661038d565b6040516101b39190610618565b60405180910390f35b3480156101c857600080fd5b506101d1610393565b6040516101de9190610633565b60405180910390f35b3480156101f357600080fd5b506101fc6103b9565b6040516102099190610667565b60405180910390f35b60008061021d6103b9565b90506000670de0b6b3a7640000828561023691906106b1565b610240919061073a565b9050600061271060025483610255919061073a565b61025f919061073a565b9050809350505050919050565b600160009054906101000a900473ffffffffffffffffffffffffffffffffffffffff1681565b600360009054906101000a900473ffffffffffffffffffffffffffffffffffffffff1673ffffffffffffffffffffffffffffffffffffffff163373ffffffffffffffffffffffffffffffffffffffff1614610322576040517f08c379a0000000000000000000000000000000000000000000000000000000008152600401610319906107c8565b60405180910390fd5b600360009054906101000a900473ffffffffffffffffffffffffffffffffffffffff1673ffffffffffffffffffffffffffffffffffffffff166108fc479081150290604051600060405180830381858888f1935050505015801561038a573d6000803e3d6000fd5b50565b60025481565b600360009054906101000a900473ffffffffffffffffffffffffffffffffffffffff1681565b60008060008054906101000a900473ffffffffffffffffffffffffffffffffffffffff1673ffffffffffffffffffffffffffffffffffffffff1663feaf968c6040518163ffffffff1660e01b815260040160a060405180830381865afa158015610427573d6000803e3d6000fd5b505050506040513d601f19601f8201168201806040525081019061044b919061086b565b5050509150508091505090565b600073ffffffffffffffffffffffffffffffffffffffff82169050919050565b600061048382610458565b9050919050565b61049381610478565b82525050565b6000819050919050565b6104ac81610499565b82525050565b60006040820190506104c7600083018561048a565b6104d460208301846104a3565b9392505050565b600080fd5b60008115159050919050565b6104f5816104e0565b811461050057600080fd5b50565b600081519050610512816104ec565b92915050565b60006020828403121561052e5761052d6104db565b5b600061053c84828501610503565b91505092915050565b6000819050919050565b600061056a61056561056084610458565b610545565b610458565b9050919050565b600061057c8261054f565b9050919050565b600061058e82610571565b9050919050565b61059e81610583565b82525050565b60006020820190506105b96000830184610595565b92915050565b6105c881610499565b81146105d357600080fd5b50565b6000813590506105e5816105bf565b92915050565b600060208284031215610601576106006104db565b5b600061060f848285016105d6565b91505092915050565b600060208201905061062d60008301846104a3565b92915050565b6000602082019050610648600083018461048a565b92915050565b6000819050919050565b6106618161064e565b82525050565b600060208201905061067c6000830184610658565b92915050565b7f4e487b7100000000000000000000000000000000000000000000000000000000600052601160045260246000fd5b60006106bc82610499565b91506106c783610499565b9250817fffffffffffffffffffffffffffffffffffffffffffffffffffffffffffffffff0483118215151615610700576106ff610682565b5b828202905092915050565b7f4e487b7100000000000000000000000000000000000000000000000000000000600052601260045260246000fd5b600061074582610499565b915061075083610499565b9250826107605761075f61070b565b5b828204905092915050565b600082825260208201905092915050565b7f4170656e6173206f206f776e65722e0000000000000000000000000000000000600082015250565b60006107b2600f8361076b565b91506107bd8261077c565b602082019050919050565b600060208201905081810360008301526107e1816107a5565b9050919050565b600069ffffffffffffffffffff82169050919050565b610807816107e8565b811461081257600080fd5b50565b600081519050610824816107fe565b92915050565b6108338161064e565b811461083e57600080fd5b50565b6000815190506108508161082a565b92915050565b600081519050610865816105bf565b92915050565b600080600080600060a08688031215610887576108866104db565b5b600061089588828901610815565b95505060206108a688828901610841565b94505060406108b788828901610856565b93505060606108c888828901610856565b92505060806108d988828901610815565b915050929550929590935056fea26469706673582212205c9ca402dd74302b94de70671f60aad1cedb2452fde361541e6f33b33d904cc064736f6c634300080d0033",
  "linkReferences": {},
  "deployedLinkReferences": {}
}