{
  "_format": "hh-sol-artifact-1",
  "contractName": "W3Recicle",
  "sourceName": "contracts/W3Recicle.sol",
  "abi": [
    {
      "inputs": [
        {
          "internalType": "string",
          "name": "_collectionName",
          "type": "string"
        },
        {
          "internalType": "string",
          "name": "_token",
          "type": "string"
        }
      ],
      "stateMutability": "payable",
      "type": "constructor"
    },
    {
      "anonymous": false,
      "inputs": [
        {
          "indexed": true,
          "internalType": "address",
          "name": "owner",
          "type": "address"
        },
        {
          "indexed": true,
          "internalType": "address",
          "name": "approved",
          "type": "address"
        },
        {
          "indexed": true,
          "internalType": "uint256",
          "name": "tokenId",
          "type": "uint256"
        }
      ],
      "name": "Approval",
      "type": "event"
    },
    {
      "anonymous": false,
      "inputs": [
        {
          "indexed": true,
          "internalType": "address",
          "name": "owner",
          "type": "address"
        },
        {
          "indexed": true,
          "internalType": "address",
          "name": "operator",
          "type": "address"
        },
        {
          "indexed": false,
          "internalType": "bool",
          "name": "approved",
          "type": "bool"
        }
      ],
      "name": "ApprovalForAll",
      "type": "event"
    },
    {
      "anonymous": false,
      "inputs": [
        {
          "indexed": false,
          "internalType": "uint256",
          "name": "_fromTokenId",
          "type": "uint256"
        },
        {
          "indexed": false,
          "internalType": "uint256",
          "name": "_toTokenId",
          "type": "uint256"
        }
      ],
      "name": "BatchMetadataUpdate",
      "type": "event"
    },
    {
      "anonymous": false,
      "inputs": [
        {
          "indexed": false,
          "internalType": "uint256",
          "name": "_tokenId",
          "type": "uint256"
        }
      ],
      "name": "MetadataUpdate",
      "type": "event"
    },
    {
      "anonymous": false,
      "inputs": [
        {
          "indexed": false,
          "internalType": "bool",
          "name": "isMinted",
          "type": "bool"
        }
      ],
      "name": "NftMinted",
      "type": "event"
    },
    {
      "anonymous": false,
      "inputs": [
        {
          "indexed": false,
          "internalType": "bool",
          "name": "isMinted",
          "type": "bool"
        }
      ],
      "name": "NftTransferred",
      "type": "event"
    },
    {
      "anonymous": false,
      "inputs": [
        {
          "indexed": true,
          "internalType": "bytes32",
          "name": "role",
          "type": "bytes32"
        },
        {
          "indexed": true,
          "internalType": "bytes32",
          "name": "previousAdminRole",
          "type": "bytes32"
        },
        {
          "indexed": true,
          "internalType": "bytes32",
          "name": "newAdminRole",
          "type": "bytes32"
        }
      ],
      "name": "RoleAdminChanged",
      "type": "event"
    },
    {
      "anonymous": false,
      "inputs": [
        {
          "indexed": true,
          "internalType": "bytes32",
          "name": "role",
          "type": "bytes32"
        },
        {
          "indexed": true,
          "internalType": "address",
          "name": "account",
          "type": "address"
        },
        {
          "indexed": true,
          "internalType": "address",
          "name": "sender",
          "type": "address"
        }
      ],
      "name": "RoleGranted",
      "type": "event"
    },
    {
      "anonymous": false,
      "inputs": [
        {
          "indexed": true,
          "internalType": "bytes32",
          "name": "role",
          "type": "bytes32"
        },
        {
          "indexed": true,
          "internalType": "address",
          "name": "account",
          "type": "address"
        },
        {
          "indexed": true,
          "internalType": "address",
          "name": "sender",
          "type": "address"
        }
      ],
      "name": "RoleRevoked",
      "type": "event"
    },
    {
      "anonymous": false,
      "inputs": [
        {
          "indexed": true,
          "internalType": "address",
          "name": "from",
          "type": "address"
        },
        {
          "indexed": true,
          "internalType": "address",
          "name": "to",
          "type": "address"
        },
        {
          "indexed": true,
          "internalType": "uint256",
          "name": "tokenId",
          "type": "uint256"
        }
      ],
      "name": "Transfer",
      "type": "event"
    },
    {
      "inputs": [
        {
          "internalType": "uint256",
          "name": "tokenId",
          "type": "uint256"
        }
      ],
      "name": "BurnNft",
      "outputs": [],
      "stateMutability": "nonpayable",
      "type": "function"
    },
    {
      "inputs": [],
      "name": "COLLECTPOINT_ROLE",
      "outputs": [
        {
          "internalType": "bytes32",
          "name": "",
          "type": "bytes32"
        }
      ],
      "stateMutability": "view",
      "type": "function"
    },
    {
      "inputs": [],
      "name": "CONSUMER_ROLE",
      "outputs": [
        {
          "internalType": "bytes32",
          "name": "",
          "type": "bytes32"
        }
      ],
      "stateMutability": "view",
      "type": "function"
    },
    {
      "inputs": [],
      "name": "DEFAULT_ADMIN_ROLE",
      "outputs": [
        {
          "internalType": "bytes32",
          "name": "",
          "type": "bytes32"
        }
      ],
      "stateMutability": "view",
      "type": "function"
    },
    {
      "inputs": [
        {
          "internalType": "uint256",
          "name": "",
          "type": "uint256"
        }
      ],
      "name": "_devices",
      "outputs": [
        {
          "internalType": "uint256",
          "name": "productId",
          "type": "uint256"
        },
        {
          "internalType": "string",
          "name": "emei",
          "type": "string"
        },
        {
          "internalType": "address",
          "name": "owner",
          "type": "address"
        }
      ],
      "stateMutability": "view",
      "type": "function"
    },
    {
      "inputs": [
        {
          "internalType": "uint256",
          "name": "",
          "type": "uint256"
        }
      ],
      "name": "_products",
      "outputs": [
        {
          "internalType": "string",
          "name": "deviceType",
          "type": "string"
        },
        {
          "internalType": "string",
          "name": "model",
          "type": "string"
        },
        {
          "internalType": "string",
          "name": "image",
          "type": "string"
        },
        {
          "internalType": "string",
          "name": "fabricant",
          "type": "string"
        },
        {
          "internalType": "uint256",
          "name": "price",
          "type": "uint256"
        }
      ],
      "stateMutability": "view",
      "type": "function"
    },
    {
      "inputs": [
        {
          "internalType": "uint256",
          "name": "tokenId",
          "type": "uint256"
        }
      ],
      "name": "activityOwnerOf",
      "outputs": [
        {
          "internalType": "address",
          "name": "",
          "type": "address"
        }
      ],
      "stateMutability": "view",
      "type": "function"
    },
    {
      "inputs": [
        {
          "internalType": "address",
          "name": "to",
          "type": "address"
        },
        {
          "internalType": "uint256",
          "name": "tokenId",
          "type": "uint256"
        }
      ],
      "name": "approve",
      "outputs": [],
      "stateMutability": "nonpayable",
      "type": "function"
    },
    {
      "inputs": [
        {
          "internalType": "address",
          "name": "from",
          "type": "address"
        },
        {
          "components": [
            {
              "internalType": "uint256",
              "name": "tokenId",
              "type": "uint256"
            },
            {
              "internalType": "uint256",
              "name": "amount",
              "type": "uint256"
            },
            {
              "internalType": "address",
              "name": "to",
              "type": "address"
            }
          ],
          "internalType": "struct W3Recicle.ApprovementInfo",
          "name": "_txn",
          "type": "tuple"
        },
        {
          "internalType": "uint256",
          "name": "_nonce",
          "type": "uint256"
        },
        {
          "internalType": "bytes[]",
          "name": "_multiSignature",
          "type": "bytes[]"
        }
      ],
      "name": "approveActivity",
      "outputs": [],
      "stateMutability": "nonpayable",
      "type": "function"
    },
    {
      "inputs": [
        {
          "internalType": "address",
          "name": "owner",
          "type": "address"
        }
      ],
      "name": "balanceOf",
      "outputs": [
        {
          "internalType": "uint256",
          "name": "",
          "type": "uint256"
        }
      ],
      "stateMutability": "view",
      "type": "function"
    },
    {
      "inputs": [
        {
          "internalType": "address",
          "name": "account",
          "type": "address"
        }
      ],
      "name": "checkAddressLeader",
      "outputs": [
        {
          "internalType": "bool",
          "name": "",
          "type": "bool"
        }
      ],
      "stateMutability": "view",
      "type": "function"
    },
    {
      "inputs": [
        {
          "internalType": "address",
          "name": "account",
          "type": "address"
        }
      ],
      "name": "checkAddressMember",
      "outputs": [
        {
          "internalType": "bool",
          "name": "",
          "type": "bool"
        }
      ],
      "stateMutability": "view",
      "type": "function"
    },
    {
      "inputs": [],
      "name": "deviceIdCounter",
      "outputs": [
        {
          "internalType": "uint256",
          "name": "_value",
          "type": "uint256"
        }
      ],
      "stateMutability": "view",
      "type": "function"
    },
    {
      "inputs": [
        {
          "internalType": "uint256",
          "name": "tokenId",
          "type": "uint256"
        }
      ],
      "name": "getActivity",
      "outputs": [
        {
          "components": [
            {
              "internalType": "uint256",
              "name": "tokenId",
              "type": "uint256"
            },
            {
              "internalType": "string",
              "name": "status",
              "type": "string"
            },
            {
              "internalType": "string",
              "name": "tokenUri",
              "type": "string"
            },
            {
              "internalType": "uint256",
              "name": "reward",
              "type": "uint256"
            }
          ],
          "internalType": "struct W3Recicle.Activity",
          "name": "",
          "type": "tuple"
        }
      ],
      "stateMutability": "view",
      "type": "function"
    },
    {
      "inputs": [
        {
          "internalType": "uint256",
          "name": "tokenId",
          "type": "uint256"
        }
      ],
      "name": "getApproved",
      "outputs": [
        {
          "internalType": "address",
          "name": "",
          "type": "address"
        }
      ],
      "stateMutability": "view",
      "type": "function"
    },
    {
      "inputs": [
        {
          "internalType": "bytes32",
          "name": "role",
          "type": "bytes32"
        }
      ],
      "name": "getRoleAdmin",
      "outputs": [
        {
          "internalType": "bytes32",
          "name": "",
          "type": "bytes32"
        }
      ],
      "stateMutability": "view",
      "type": "function"
    },
    {
      "inputs": [
        {
          "internalType": "bytes32",
          "name": "role",
          "type": "bytes32"
        },
        {
          "internalType": "address",
          "name": "account",
          "type": "address"
        }
      ],
      "name": "grantRole",
      "outputs": [],
      "stateMutability": "nonpayable",
      "type": "function"
    },
    {
      "inputs": [
        {
          "internalType": "bytes32",
          "name": "role",
          "type": "bytes32"
        },
        {
          "internalType": "address",
          "name": "account",
          "type": "address"
        }
      ],
      "name": "hasRole",
      "outputs": [
        {
          "internalType": "bool",
          "name": "",
          "type": "bool"
        }
      ],
      "stateMutability": "view",
      "type": "function"
    },
    {
      "inputs": [],
      "name": "idCounter",
      "outputs": [
        {
          "internalType": "uint256",
          "name": "",
          "type": "uint256"
        }
      ],
      "stateMutability": "view",
      "type": "function"
    },
    {
      "inputs": [
        {
          "internalType": "address",
          "name": "owner",
          "type": "address"
        },
        {
          "internalType": "address",
          "name": "operator",
          "type": "address"
        }
      ],
      "name": "isApprovedForAll",
      "outputs": [
        {
          "internalType": "bool",
          "name": "",
          "type": "bool"
        }
      ],
      "stateMutability": "view",
      "type": "function"
    },
    {
      "inputs": [
        {
          "internalType": "uint256",
          "name": "tokenId",
          "type": "uint256"
        }
      ],
      "name": "isAvailableActivity",
      "outputs": [
        {
          "internalType": "bool",
          "name": "",
          "type": "bool"
        }
      ],
      "stateMutability": "view",
      "type": "function"
    },
    {
      "inputs": [],
      "name": "lastMinted",
      "outputs": [
        {
          "internalType": "string",
          "name": "",
          "type": "string"
        }
      ],
      "stateMutability": "view",
      "type": "function"
    },
    {
      "inputs": [],
      "name": "name",
      "outputs": [
        {
          "internalType": "string",
          "name": "",
          "type": "string"
        }
      ],
      "stateMutability": "view",
      "type": "function"
    },
    {
      "inputs": [],
      "name": "nonce",
      "outputs": [
        {
          "internalType": "uint256",
          "name": "",
          "type": "uint256"
        }
      ],
      "stateMutability": "view",
      "type": "function"
    },
    {
      "inputs": [
        {
          "internalType": "address",
          "name": "",
          "type": "address"
        },
        {
          "internalType": "address",
          "name": "",
          "type": "address"
        },
        {
          "internalType": "uint256",
          "name": "",
          "type": "uint256"
        },
        {
          "internalType": "bytes",
          "name": "",
          "type": "bytes"
        }
      ],
      "name": "onERC721Received",
      "outputs": [
        {
          "internalType": "bytes4",
          "name": "",
          "type": "bytes4"
        }
      ],
      "stateMutability": "pure",
      "type": "function"
    },
    {
      "inputs": [],
      "name": "owner",
      "outputs": [
        {
          "internalType": "address",
          "name": "",
          "type": "address"
        }
      ],
      "stateMutability": "view",
      "type": "function"
    },
    {
      "inputs": [
        {
          "internalType": "uint256",
          "name": "tokenId",
          "type": "uint256"
        }
      ],
      "name": "ownerOf",
      "outputs": [
        {
          "internalType": "address",
          "name": "",
          "type": "address"
        }
      ],
      "stateMutability": "view",
      "type": "function"
    },
    {
      "inputs": [],
      "name": "productIdCounter",
      "outputs": [
        {
          "internalType": "uint256",
          "name": "_value",
          "type": "uint256"
        }
      ],
      "stateMutability": "view",
      "type": "function"
    },
    {
      "inputs": [
        {
          "internalType": "uint256",
          "name": "productId",
          "type": "uint256"
        },
        {
          "internalType": "string",
          "name": "emei",
          "type": "string"
        }
      ],
      "name": "registerDevice",
      "outputs": [],
      "stateMutability": "nonpayable",
      "type": "function"
    },
    {
      "inputs": [
        {
          "internalType": "string",
          "name": "deviceType",
          "type": "string"
        },
        {
          "internalType": "string",
          "name": "model",
          "type": "string"
        },
        {
          "internalType": "string",
          "name": "image",
          "type": "string"
        },
        {
          "internalType": "string",
          "name": "fabricant",
          "type": "string"
        },
        {
          "internalType": "uint256",
          "name": "price",
          "type": "uint256"
        }
      ],
      "name": "registerProduct",
      "outputs": [],
      "stateMutability": "nonpayable",
      "type": "function"
    },
    {
      "inputs": [
        {
          "internalType": "bytes32",
          "name": "role",
          "type": "bytes32"
        },
        {
          "internalType": "address",
          "name": "account",
          "type": "address"
        }
      ],
      "name": "renounceRole",
      "outputs": [],
      "stateMutability": "nonpayable",
      "type": "function"
    },
    {
      "inputs": [
        {
          "internalType": "bytes32",
          "name": "role",
          "type": "bytes32"
        },
        {
          "internalType": "address",
          "name": "account",
          "type": "address"
        }
      ],
      "name": "revokeRole",
      "outputs": [],
      "stateMutability": "nonpayable",
      "type": "function"
    },
    {
      "inputs": [
        {
          "internalType": "address",
          "name": "to",
          "type": "address"
        },
        {
          "internalType": "string",
          "name": "ipfsUri",
          "type": "string"
        }
      ],
      "name": "safeMint",
      "outputs": [],
      "stateMutability": "payable",
      "type": "function"
    },
    {
      "inputs": [
        {
          "internalType": "address",
          "name": "from",
          "type": "address"
        },
        {
          "internalType": "address",
          "name": "to",
          "type": "address"
        },
        {
          "internalType": "uint256",
          "name": "tokenId",
          "type": "uint256"
        }
      ],
      "name": "safeTransferFrom",
      "outputs": [],
      "stateMutability": "nonpayable",
      "type": "function"
    },
    {
      "inputs": [
        {
          "internalType": "address",
          "name": "from",
          "type": "address"
        },
        {
          "internalType": "address",
          "name": "to",
          "type": "address"
        },
        {
          "internalType": "uint256",
          "name": "tokenId",
          "type": "uint256"
        },
        {
          "internalType": "bytes",
          "name": "data",
          "type": "bytes"
        }
      ],
      "name": "safeTransferFrom",
      "outputs": [],
      "stateMutability": "nonpayable",
      "type": "function"
    },
    {
      "inputs": [
        {
          "internalType": "uint256",
          "name": "tokenId",
          "type": "uint256"
        },
        {
          "internalType": "address",
          "name": "to",
          "type": "address"
        }
      ],
      "name": "setActivityOwner",
      "outputs": [],
      "stateMutability": "nonpayable",
      "type": "function"
    },
    {
      "inputs": [
        {
          "internalType": "address",
          "name": "operator",
          "type": "address"
        },
        {
          "internalType": "bool",
          "name": "approved",
          "type": "bool"
        }
      ],
      "name": "setApprovalForAll",
      "outputs": [],
      "stateMutability": "nonpayable",
      "type": "function"
    },
    {
      "inputs": [
        {
          "internalType": "bytes4",
          "name": "interfaceId",
          "type": "bytes4"
        }
      ],
      "name": "supportsInterface",
      "outputs": [
        {
          "internalType": "bool",
          "name": "",
          "type": "bool"
        }
      ],
      "stateMutability": "view",
      "type": "function"
    },
    {
      "inputs": [],
      "name": "symbol",
      "outputs": [
        {
          "internalType": "string",
          "name": "",
          "type": "string"
        }
      ],
      "stateMutability": "view",
      "type": "function"
    },
    {
      "inputs": [],
      "name": "tokenIdCounter",
      "outputs": [
        {
          "internalType": "uint256",
          "name": "_value",
          "type": "uint256"
        }
      ],
      "stateMutability": "view",
      "type": "function"
    },
    {
      "inputs": [
        {
          "internalType": "uint256",
          "name": "tokenId",
          "type": "uint256"
        }
      ],
      "name": "tokenURI",
      "outputs": [
        {
          "internalType": "string",
          "name": "",
          "type": "string"
        }
      ],
      "stateMutability": "view",
      "type": "function"
    },
    {
      "inputs": [
        {
          "internalType": "address",
          "name": "from",
          "type": "address"
        },
        {
          "internalType": "address",
          "name": "to",
          "type": "address"
        },
        {
          "internalType": "uint256",
          "name": "tokenId",
          "type": "uint256"
        }
      ],
      "name": "transferFrom",
      "outputs": [],
      "stateMutability": "nonpayable",
      "type": "function"
    },
    {
      "inputs": [
        {
          "internalType": "address",
          "name": "from",
          "type": "address"
        },
        {
          "internalType": "address",
          "name": "_to",
          "type": "address"
        },
        {
          "internalType": "uint256",
          "name": "_tokenId",
          "type": "uint256"
        }
      ],
      "name": "transferNFTWithETH",
      "outputs": [],
      "stateMutability": "payable",
      "type": "function"
    },
    {
      "stateMutability": "payable",
      "type": "receive"
    }
  ],
  "bytecode": "0x60806040526040516200654238038062006542833981810160405281019062000029919062000499565b81818160009080519060200190620000439291906200024c565b5080600190805190602001906200005c9291906200024c565b5050506002600e8190555033601160006101000a81548173ffffffffffffffffffffffffffffffffffffffff021916908373ffffffffffffffffffffffffffffffffffffffff160217905550620000df6000801b601160009054906101000a900473ffffffffffffffffffffffffffffffffffffffff16620000e760201b60201c565b505062000582565b620000f98282620001d960201b60201c565b620001d55760016007600084815260200190815260200160002060000160008373ffffffffffffffffffffffffffffffffffffffff1673ffffffffffffffffffffffffffffffffffffffff16815260200190815260200160002060006101000a81548160ff0219169083151502179055506200017a6200024460201b60201c565b73ffffffffffffffffffffffffffffffffffffffff168173ffffffffffffffffffffffffffffffffffffffff16837f2f8788117e7eff1d82e926ec794901d17c78024a50270940304540a733656f0d60405160405180910390a45b5050565b60006007600084815260200190815260200160002060000160008373ffffffffffffffffffffffffffffffffffffffff1673ffffffffffffffffffffffffffffffffffffffff16815260200190815260200160002060009054906101000a900460ff16905092915050565b600033905090565b8280546200025a906200054d565b90600052602060002090601f0160209004810192826200027e5760008555620002ca565b82601f106200029957805160ff1916838001178555620002ca565b82800160010185558215620002ca579182015b82811115620002c9578251825591602001919060010190620002ac565b5b509050620002d99190620002dd565b5090565b5b80821115620002f8576000816000905550600101620002de565b5090565b6000604051905090565b600080fd5b600080fd5b600080fd5b600080fd5b6000601f19601f8301169050919050565b7f4e487b7100000000000000000000000000000000000000000000000000000000600052604160045260246000fd5b62000365826200031a565b810181811067ffffffffffffffff821117156200038757620003866200032b565b5b80604052505050565b60006200039c620002fc565b9050620003aa82826200035a565b919050565b600067ffffffffffffffff821115620003cd57620003cc6200032b565b5b620003d8826200031a565b9050602081019050919050565b60005b8381101562000405578082015181840152602081019050620003e8565b8381111562000415576000848401525b50505050565b6000620004326200042c84620003af565b62000390565b90508281526020810184848401111562000451576200045062000315565b5b6200045e848285620003e5565b509392505050565b600082601f8301126200047e576200047d62000310565b5b8151620004908482602086016200041b565b91505092915050565b60008060408385031215620004b357620004b262000306565b5b600083015167ffffffffffffffff811115620004d457620004d36200030b565b5b620004e28582860162000466565b925050602083015167ffffffffffffffff8111156200050657620005056200030b565b5b620005148582860162000466565b9150509250929050565b7f4e487b7100000000000000000000000000000000000000000000000000000000600052602260045260246000fd5b600060028204905060018216806200056657607f821691505b6020821081036200057c576200057b6200051e565b5b50919050565b615fb080620005926000396000f3fe6080604052600436106102605760003560e01c8063922635d811610144578063c9d0f246116100b6578063d93f4d231161007a578063d93f4d2314610973578063db0c835c1461099c578063e035f484146109c5578063e34a9d49146109ee578063e985e9c514610a2b578063eb08ab2814610a6857610267565b8063c9d0f246146108a8578063c9e65b84146108d3578063cffb6cb5146108ef578063d204c45e1461092e578063d547741f1461094a57610267565b8063a217fddf11610108578063a217fddf14610798578063a22cb465146107c3578063affed0e0146107ec578063b88d4fde14610817578063bbc19ab014610840578063c87b56dd1461086b57610267565b8063922635d81461069b57806395d89b41146106d857806398bdf6f5146107035780639be164d31461072e578063a18c1fab1461076f57610267565b8063342ae8c6116101dd57806363fe1f77116101a157806363fe1f771461055157806370a082311461058e5780638d9ecc64146105cb5780638da5cb5b146105f6578063906322c91461062157806391d148541461065e57610267565b8063342ae8c61461046c57806336568abe1461049757806342842e0e146104c05780634bc02da6146104e95780636352211e1461051457610267565b8063150b7a0211610224578063150b7a02146103635780631d1b29bd146103a057806323b872dd146103dd578063248a9ca3146104065780632f2ff15d1461044357610267565b806301ffc9a71461026c5780630588fcb0146102a957806306fdde03146102d2578063081812fc146102fd578063095ea7b31461033a57610267565b3661026757005b600080fd5b34801561027857600080fd5b50610293600480360381019061028e9190613f32565b610a93565b6040516102a09190613f7a565b60405180910390f35b3480156102b557600080fd5b506102d060048036038101906102cb9190613fcb565b610aa5565b005b3480156102de57600080fd5b506102e7610adc565b6040516102f49190614091565b60405180910390f35b34801561030957600080fd5b50610324600480360381019061031f9190613fcb565b610b6e565b60405161033191906140f4565b60405180910390f35b34801561034657600080fd5b50610361600480360381019061035c919061413b565b610bb4565b005b34801561036f57600080fd5b5061038a600480360381019061038591906141e0565b610ccb565b6040516103979190614277565b60405180910390f35b3480156103ac57600080fd5b506103c760048036038101906103c29190614292565b610ce0565b6040516103d49190613f7a565b60405180910390f35b3480156103e957600080fd5b5061040460048036038101906103ff91906142bf565b610d13565b005b34801561041257600080fd5b5061042d60048036038101906104289190614348565b610d74565b60405161043a9190614384565b60405180910390f35b34801561044f57600080fd5b5061046a6004803603810190610465919061439f565b610d94565b005b34801561047857600080fd5b50610481610e38565b60405161048e91906143ee565b60405180910390f35b3480156104a357600080fd5b506104be60048036038101906104b9919061439f565b610e44565b005b3480156104cc57600080fd5b506104e760048036038101906104e291906142bf565b610ec7565b005b3480156104f557600080fd5b506104fe610ee7565b60405161050b9190614384565b60405180910390f35b34801561052057600080fd5b5061053b60048036038101906105369190613fcb565b610f0b565b60405161054891906140f4565b60405180910390f35b34801561055d57600080fd5b5061057860048036038101906105739190613fcb565b610f91565b6040516105859190613f7a565b60405180910390f35b34801561059a57600080fd5b506105b560048036038101906105b09190614292565b610fbb565b6040516105c291906143ee565b60405180910390f35b3480156105d757600080fd5b506105e0611072565b6040516105ed9190614384565b60405180910390f35b34801561060257600080fd5b5061060b611096565b60405161061891906140f4565b60405180910390f35b34801561062d57600080fd5b5061064860048036038101906106439190614292565b6110bc565b6040516106559190613f7a565b60405180910390f35b34801561066a57600080fd5b506106856004803603810190610680919061439f565b6110ef565b6040516106929190613f7a565b60405180910390f35b3480156106a757600080fd5b506106c260048036038101906106bd9190613fcb565b61115a565b6040516106cf91906144cc565b60405180910390f35b3480156106e457600080fd5b506106ed6112bf565b6040516106fa9190614091565b60405180910390f35b34801561070f57600080fd5b50610718611351565b60405161072591906143ee565b60405180910390f35b34801561073a57600080fd5b5061075560048036038101906107509190613fcb565b61135d565b6040516107669594939291906144ee565b60405180910390f35b34801561077b57600080fd5b506107966004803603810190610791919061468d565b6115b3565b005b3480156107a457600080fd5b506107ad6116a2565b6040516107ba9190614384565b60405180910390f35b3480156107cf57600080fd5b506107ea60048036038101906107e591906147a4565b6116a9565b005b3480156107f857600080fd5b506108016116bf565b60405161080e91906143ee565b60405180910390f35b34801561082357600080fd5b5061083e60048036038101906108399190614885565b6116c5565b005b34801561084c57600080fd5b50610855611727565b6040516108629190614091565b60405180910390f35b34801561087757600080fd5b50610892600480360381019061088d9190613fcb565b61178d565b60405161089f9190614091565b60405180910390f35b3480156108b457600080fd5b506108bd61179f565b6040516108ca91906143ee565b60405180910390f35b6108ed60048036038101906108e891906142bf565b6117ab565b005b3480156108fb57600080fd5b5061091660048036038101906109119190613fcb565b611929565b60405161092593929190614908565b60405180910390f35b61094860048036038101906109439190614946565b6119fb565b005b34801561095657600080fd5b50610971600480360381019061096c919061439f565b611bc8565b005b34801561097f57600080fd5b5061099a60048036038101906109959190614a1c565b611be9565b005b3480156109a857600080fd5b506109c360048036038101906109be9190614aa4565b611c6d565b005b3480156109d157600080fd5b506109ec60048036038101906109e79190614b00565b611d92565b005b3480156109fa57600080fd5b50610a156004803603810190610a109190613fcb565b611ecb565b604051610a2291906140f4565b60405180910390f35b348015610a3757600080fd5b50610a526004803603810190610a4d9190614b40565b611f0d565b604051610a5f9190613f7a565b60405180910390f35b348015610a7457600080fd5b50610a7d611fa1565b604051610a8a91906143ee565b60405180910390f35b6000610a9e82611fb2565b9050919050565b7f9d56108290ea0bc9c5c59c3ad357dca9d1b29ed7f3ae1443bef2fa2159bdf5e8610acf8161202c565b610ad882612040565b5050565b606060008054610aeb90614baf565b80601f0160208091040260200160405190810160405280929190818152602001828054610b1790614baf565b8015610b645780601f10610b3957610100808354040283529160200191610b64565b820191906000526020600020905b815481529060010190602001808311610b4757829003601f168201915b5050505050905090565b6000610b798261204c565b6004600083815260200190815260200160002060009054906101000a900473ffffffffffffffffffffffffffffffffffffffff169050919050565b6000610bbf82610f0b565b90508073ffffffffffffffffffffffffffffffffffffffff168373ffffffffffffffffffffffffffffffffffffffff1603610c2f576040517f08c379a0000000000000000000000000000000000000000000000000000000008152600401610c2690614c52565b60405180910390fd5b8073ffffffffffffffffffffffffffffffffffffffff16610c4e612097565b73ffffffffffffffffffffffffffffffffffffffff161480610c7d5750610c7c81610c77612097565b611f0d565b5b610cbc576040517f08c379a0000000000000000000000000000000000000000000000000000000008152600401610cb390614ce4565b60405180910390fd5b610cc6838361209f565b505050565b600063150b7a0260e01b905095945050505050565b6000610d0c7f9d56108290ea0bc9c5c59c3ad357dca9d1b29ed7f3ae1443bef2fa2159bdf5e8836110ef565b9050919050565b6000801b610d208161202c565b610d2b8360016116a9565b610d36848484612158565b7ff6424459656d156a32411176601baac0d0f3e7ffa29398e7cbfbab916565f1726001604051610d669190613f7a565b60405180910390a150505050565b600060076000838152602001908152602001600020600101549050919050565b610da06000801b610d74565b610da98161202c565b7f9d56108290ea0bc9c5c59c3ad357dca9d1b29ed7f3ae1443bef2fa2159bdf5e88303610e29576001600d60008473ffffffffffffffffffffffffffffffffffffffff1673ffffffffffffffffffffffffffffffffffffffff16815260200190815260200160002060006101000a81548160ff0219169083151502179055505b610e338383612451565b505050565b60098060000154905081565b610e4c612097565b73ffffffffffffffffffffffffffffffffffffffff168173ffffffffffffffffffffffffffffffffffffffff1614610eb9576040517f08c379a0000000000000000000000000000000000000000000000000000000008152600401610eb090614d76565b60405180910390fd5b610ec38282612532565b5050565b610ee2838383604051806020016040528060008152506116c5565b505050565b7f9d56108290ea0bc9c5c59c3ad357dca9d1b29ed7f3ae1443bef2fa2159bdf5e881565b600080610f1783612614565b9050600073ffffffffffffffffffffffffffffffffffffffff168173ffffffffffffffffffffffffffffffffffffffff1603610f88576040517f08c379a0000000000000000000000000000000000000000000000000000000008152600401610f7f90614de2565b60405180910390fd5b80915050919050565b60006013600083815260200190815260200160002060009054906101000a900460ff169050919050565b60008073ffffffffffffffffffffffffffffffffffffffff168273ffffffffffffffffffffffffffffffffffffffff160361102b576040517f08c379a000000000000000000000000000000000000000000000000000000000815260040161102290614e74565b60405180910390fd5b600360008373ffffffffffffffffffffffffffffffffffffffff1673ffffffffffffffffffffffffffffffffffffffff168152602001908152602001600020549050919050565b7f28339925a2b6deac81ad2bf2d029c067cf13370c774e74d3fb301450978fbe0681565b601160009054906101000a900473ffffffffffffffffffffffffffffffffffffffff1681565b60006110e87f28339925a2b6deac81ad2bf2d029c067cf13370c774e74d3fb301450978fbe06836110ef565b9050919050565b60006007600084815260200190815260200160002060000160008373ffffffffffffffffffffffffffffffffffffffff1673ffffffffffffffffffffffffffffffffffffffff16815260200190815260200160002060009054906101000a900460ff16905092915050565b611162613dbb565b601260008381526020019081526020016000206040518060800160405290816000820154815260200160018201805461119a90614baf565b80601f01602080910402602001604051908101604052809291908181526020018280546111c690614baf565b80156112135780601f106111e857610100808354040283529160200191611213565b820191906000526020600020905b8154815290600101906020018083116111f657829003601f168201915b5050505050815260200160028201805461122c90614baf565b80601f016020809104026020016040519081016040528092919081815260200182805461125890614baf565b80156112a55780601f1061127a576101008083540402835291602001916112a5565b820191906000526020600020905b81548152906001019060200180831161128857829003601f168201915b505050505081526020016003820154815250509050919050565b6060600180546112ce90614baf565b80601f01602080910402602001604051908101604052809291908181526020018280546112fa90614baf565b80156113475780601f1061131c57610100808354040283529160200191611347565b820191906000526020600020905b81548152906001019060200180831161132a57829003601f168201915b5050505050905090565b60108060000154905081565b600860205280600052604060002060009150905080600001805461138090614baf565b80601f01602080910402602001604051908101604052809291908181526020018280546113ac90614baf565b80156113f95780601f106113ce576101008083540402835291602001916113f9565b820191906000526020600020905b8154815290600101906020018083116113dc57829003601f168201915b50505050509080600101805461140e90614baf565b80601f016020809104026020016040519081016040528092919081815260200182805461143a90614baf565b80156114875780601f1061145c57610100808354040283529160200191611487565b820191906000526020600020905b81548152906001019060200180831161146a57829003601f168201915b50505050509080600201805461149c90614baf565b80601f01602080910402602001604051908101604052809291908181526020018280546114c890614baf565b80156115155780601f106114ea57610100808354040283529160200191611515565b820191906000526020600020905b8154815290600101906020018083116114f857829003601f168201915b50505050509080600301805461152a90614baf565b80601f016020809104026020016040519081016040528092919081815260200182805461155690614baf565b80156115a35780601f10611578576101008083540402835291602001916115a3565b820191906000526020600020905b81548152906001019060200180831161158657829003601f168201915b5050505050908060040154905085565b6000801b6115c08161202c565b60006040518060a0016040528088815260200187815260200186815260200185815260200184815250905060006115f76009612651565b905081600860008381526020019081526020016000206000820151816000019080519060200190611629929190613de3565b506020820151816001019080519060200190611646929190613de3565b506040820151816002019080519060200190611663929190613de3565b506060820151816003019080519060200190611680929190613de3565b5060808201518160040155905050611698600961265f565b5050505050505050565b6000801b81565b6116bb6116b4612097565b8383612675565b5050565b600c5481565b6116d66116d0612097565b836127e1565b611715576040517f08c379a000000000000000000000000000000000000000000000000000000000815260040161170c90614f06565b60405180910390fd5b61172184848484612876565b50505050565b606060006117356009612651565b905060008103611757576040518060200160405280600081525091505061178a565b600081111561177d576117756001826117709190614f55565b61178d565b91505061178a565b6117868161178d565b9150505b90565b6060611798826128d2565b9050919050565b600b8060000154905081565b8273ffffffffffffffffffffffffffffffffffffffff166117cb82610f0b565b73ffffffffffffffffffffffffffffffffffffffff1614611821576040517f08c379a000000000000000000000000000000000000000000000000000000000815260040161181890614ffb565b60405180910390fd5b60003411611864576040517f08c379a000000000000000000000000000000000000000000000000000000000815260040161185b9061508d565b60405180910390fd5b61186f338383610d13565b600061187a82610f0b565b73ffffffffffffffffffffffffffffffffffffffff163460405161189d906150de565b60006040518083038185875af1925050503d80600081146118da576040519150601f19603f3d011682016040523d82523d6000602084013e6118df565b606091505b5050905080611923576040517f08c379a000000000000000000000000000000000000000000000000000000000815260040161191a9061513f565b60405180910390fd5b50505050565b600a60205280600052604060002060009150905080600001549080600101805461195290614baf565b80601f016020809104026020016040519081016040528092919081815260200182805461197e90614baf565b80156119cb5780601f106119a0576101008083540402835291602001916119cb565b820191906000526020600020905b8154815290600101906020018083116119ae57829003601f168201915b5050505050908060020160009054906101000a900473ffffffffffffffffffffffffffffffffffffffff16905083565b7f9d56108290ea0bc9c5c59c3ad357dca9d1b29ed7f3ae1443bef2fa2159bdf5e8611a258161202c565b6001341015611a69576040517f08c379a0000000000000000000000000000000000000000000000000000000008152600401611a60906151d1565b60405180910390fd5b6000611a756009612651565b9050611a81600961265f565b611a8b84826129e4565b611a958184612a02565b611a9d613dbb565b818160000181815250508381604001819052506040518060400160405280600981526020017f417661696c61626c65000000000000000000000000000000000000000000000081525081602001819052503481606001818152505060016013600084815260200190815260200160002060006101000a81548160ff0219169083151502179055508060126000848152602001908152602001600020600082015181600001556020820151816001019080519060200190611b5e929190613de3565b506040820151816002019080519060200190611b7b929190613de3565b50606082015181600301559050507f20ca71800840a1730c265dcac5f68ec9daffe929561a6ed11f49ada5e4f7a31a6001604051611bb99190613f7a565b60405180910390a15050505050565b611bd182610d74565b611bda8161202c565b611be48383612532565b505050565b600f60009054906101000a900460ff1615611c0357600080fd5b6001600f60006101000a81548160ff021916908315150217905550611c2a84848484612aad565b611c4b85856040016020810190611c419190614292565b86600001356117ab565b6000600f60006101000a81548160ff0219169083151502179055505050505050565b7f9d56108290ea0bc9c5c59c3ad357dca9d1b29ed7f3ae1443bef2fa2159bdf5e8611c978161202c565b60006040518060600160405280858152602001848152602001601160009054906101000a900473ffffffffffffffffffffffffffffffffffffffff1673ffffffffffffffffffffffffffffffffffffffff1681525090506000611cfa600b612651565b905081600a6000838152602001908152602001600020600082015181600001556020820151816001019080519060200190611d36929190613de3565b5060408201518160020160006101000a81548173ffffffffffffffffffffffffffffffffffffffff021916908373ffffffffffffffffffffffffffffffffffffffff160217905550905050611d8b600b61265f565b5050505050565b6013600083815260200190815260200160002060009054906101000a900460ff16611df2576040517f08c379a0000000000000000000000000000000000000000000000000000000008152600401611de99061523d565b60405180910390fd5b6040518060400160405280600b81526020017f496e2050726f6772657373000000000000000000000000000000000000000000815250601260008481526020019081526020016000206001019080519060200190611e51929190613de3565b506013600083815260200190815260200160002060006101000a81549060ff0219169055806014600084815260200190815260200160002060006101000a81548173ffffffffffffffffffffffffffffffffffffffff021916908373ffffffffffffffffffffffffffffffffffffffff1602179055505050565b6000806014600084815260200190815260200160002060009054906101000a900473ffffffffffffffffffffffffffffffffffffffff16905080915050919050565b6000600560008473ffffffffffffffffffffffffffffffffffffffff1673ffffffffffffffffffffffffffffffffffffffff16815260200190815260200160002060008373ffffffffffffffffffffffffffffffffffffffff1673ffffffffffffffffffffffffffffffffffffffff16815260200190815260200160002060009054906101000a900460ff16905092915050565b6000611fad6009612651565b905090565b60007f7965db0b000000000000000000000000000000000000000000000000000000007bffffffffffffffffffffffffffffffffffffffffffffffffffffffff1916827bffffffffffffffffffffffffffffffffffffffffffffffffffffffff19161480612025575061202482612cf9565b5b9050919050565b61203d81612038612097565b612d5a565b50565b61204981612ddf565b50565b61205581612e32565b612094576040517f08c379a000000000000000000000000000000000000000000000000000000000815260040161208b90614de2565b60405180910390fd5b50565b600033905090565b816004600083815260200190815260200160002060006101000a81548173ffffffffffffffffffffffffffffffffffffffff021916908373ffffffffffffffffffffffffffffffffffffffff160217905550808273ffffffffffffffffffffffffffffffffffffffff1661211283610f0b565b73ffffffffffffffffffffffffffffffffffffffff167f8c5be1e5ebec7d5bd14f71427d1e84f3dd0314c0f7b2291e5b200ac8c7c3b92560405160405180910390a45050565b8273ffffffffffffffffffffffffffffffffffffffff1661217882610f0b565b73ffffffffffffffffffffffffffffffffffffffff16146121ce576040517f08c379a00000000000000000000000000000000000000000000000000000000081526004016121c5906152cf565b60405180910390fd5b600073ffffffffffffffffffffffffffffffffffffffff168273ffffffffffffffffffffffffffffffffffffffff160361223d576040517f08c379a000000000000000000000000000000000000000000000000000000000815260040161223490615361565b60405180910390fd5b61224a8383836001612e73565b8273ffffffffffffffffffffffffffffffffffffffff1661226a82610f0b565b73ffffffffffffffffffffffffffffffffffffffff16146122c0576040517f08c379a00000000000000000000000000000000000000000000000000000000081526004016122b7906152cf565b60405180910390fd5b6004600082815260200190815260200160002060006101000a81549073ffffffffffffffffffffffffffffffffffffffff02191690556001600360008573ffffffffffffffffffffffffffffffffffffffff1673ffffffffffffffffffffffffffffffffffffffff168152602001908152602001600020600082825403925050819055506001600360008473ffffffffffffffffffffffffffffffffffffffff1673ffffffffffffffffffffffffffffffffffffffff16815260200190815260200160002060008282540192505081905550816002600083815260200190815260200160002060006101000a81548173ffffffffffffffffffffffffffffffffffffffff021916908373ffffffffffffffffffffffffffffffffffffffff160217905550808273ffffffffffffffffffffffffffffffffffffffff168473ffffffffffffffffffffffffffffffffffffffff167fddf252ad1be2c89b69c2b068fc378daa952ba7f163c4a11628f55a4df523b3ef60405160405180910390a461244c8383836001612e79565b505050565b61245b82826110ef565b61252e5760016007600084815260200190815260200160002060000160008373ffffffffffffffffffffffffffffffffffffffff1673ffffffffffffffffffffffffffffffffffffffff16815260200190815260200160002060006101000a81548160ff0219169083151502179055506124d3612097565b73ffffffffffffffffffffffffffffffffffffffff168173ffffffffffffffffffffffffffffffffffffffff16837f2f8788117e7eff1d82e926ec794901d17c78024a50270940304540a733656f0d60405160405180910390a45b5050565b61253c82826110ef565b156126105760006007600084815260200190815260200160002060000160008373ffffffffffffffffffffffffffffffffffffffff1673ffffffffffffffffffffffffffffffffffffffff16815260200190815260200160002060006101000a81548160ff0219169083151502179055506125b5612097565b73ffffffffffffffffffffffffffffffffffffffff168173ffffffffffffffffffffffffffffffffffffffff16837ff6391f5c32d9c69d2a47ea670b442974b53935d1edc7fd64eb21e047a839171b60405160405180910390a45b5050565b60006002600083815260200190815260200160002060009054906101000a900473ffffffffffffffffffffffffffffffffffffffff169050919050565b600081600001549050919050565b6001816000016000828254019250508190555050565b8173ffffffffffffffffffffffffffffffffffffffff168373ffffffffffffffffffffffffffffffffffffffff16036126e3576040517f08c379a00000000000000000000000000000000000000000000000000000000081526004016126da906153cd565b60405180910390fd5b80600560008573ffffffffffffffffffffffffffffffffffffffff1673ffffffffffffffffffffffffffffffffffffffff16815260200190815260200160002060008473ffffffffffffffffffffffffffffffffffffffff1673ffffffffffffffffffffffffffffffffffffffff16815260200190815260200160002060006101000a81548160ff0219169083151502179055508173ffffffffffffffffffffffffffffffffffffffff168373ffffffffffffffffffffffffffffffffffffffff167f17307eab39ab6107e8899845ad3d59bd9653f200f220920489ca2b5937696c31836040516127d49190613f7a565b60405180910390a3505050565b6000806127ed83610f0b565b90508073ffffffffffffffffffffffffffffffffffffffff168473ffffffffffffffffffffffffffffffffffffffff16148061282f575061282e8185611f0d565b5b8061286d57508373ffffffffffffffffffffffffffffffffffffffff1661285584610b6e565b73ffffffffffffffffffffffffffffffffffffffff16145b91505092915050565b612881848484612158565b61288d84848484612e7f565b6128cc576040517f08c379a00000000000000000000000000000000000000000000000000000000081526004016128c39061545f565b60405180910390fd5b50505050565b60606128dd8261204c565b60006006600084815260200190815260200160002080546128fd90614baf565b80601f016020809104026020016040519081016040528092919081815260200182805461292990614baf565b80156129765780601f1061294b57610100808354040283529160200191612976565b820191906000526020600020905b81548152906001019060200180831161295957829003601f168201915b505050505090506000612987613006565b9050600081510361299c5781925050506129df565b6000825111156129d15780826040516020016129b99291906154bb565b604051602081830303815290604052925050506129df565b6129da8461301d565b925050505b919050565b6129fe828260405180602001604052806000815250613085565b5050565b612a0b82612e32565b612a4a576040517f08c379a0000000000000000000000000000000000000000000000000000000008152600401612a4190615551565b60405180910390fd5b80600660008481526020019081526020016000209080519060200190612a71929190613de3565b507ff8e1a15aba9398e019f0b49df1a4fde98ee17ae345cb5f6b5e2c27f5033e8ce782604051612aa191906143ee565b60405180910390a15050565b600c548311612af1576040517f08c379a0000000000000000000000000000000000000000000000000000000008152600401612ae8906155bd565b60405180910390fd5b6000828290509050600e54811015612b3e576040517f08c379a0000000000000000000000000000000000000000000000000000000008152600401612b3590615629565b60405180910390fd5b6000612b4a86866130e0565b9050600080600090505b83811015612ce8576000868683818110612b7157612b70615649565b5b9050602002810190612b839190615687565b8080601f016020809104026020016040519081016040528093929190818152602001838380828437600081840152601f19601f8201169050808301925050505050505090506000612bd48583613197565b90508373ffffffffffffffffffffffffffffffffffffffff168173ffffffffffffffffffffffffffffffffffffffff1611612c44576040517f08c379a0000000000000000000000000000000000000000000000000000000008152600401612c3b90615736565b60405180910390fd5b600d60008273ffffffffffffffffffffffffffffffffffffffff1673ffffffffffffffffffffffffffffffffffffffff16815260200190815260200160002060009054906101000a900460ff16612cd0576040517f08c379a0000000000000000000000000000000000000000000000000000000008152600401612cc7906157a2565b60405180910390fd5b80935050508080612ce0906157c2565b915050612b54565b5085600c8190555050505050505050565b6000634906490660e01b7bffffffffffffffffffffffffffffffffffffffffffffffffffffffff1916827bffffffffffffffffffffffffffffffffffffffffffffffffffffffff19161480612d535750612d52826131be565b5b9050919050565b612d6482826110ef565b612ddb57612d71816132a0565b612d7f8360001c60206132cd565b604051602001612d909291906158a2565b6040516020818303038152906040526040517f08c379a0000000000000000000000000000000000000000000000000000000008152600401612dd29190614091565b60405180910390fd5b5050565b612de881613509565b6000600660008381526020019081526020016000208054612e0890614baf565b905014612e2f57600660008281526020019081526020016000206000612e2e9190613e69565b5b50565b60008073ffffffffffffffffffffffffffffffffffffffff16612e5483612614565b73ffffffffffffffffffffffffffffffffffffffff1614159050919050565b50505050565b50505050565b6000612ea08473ffffffffffffffffffffffffffffffffffffffff16613657565b15612ff9578373ffffffffffffffffffffffffffffffffffffffff1663150b7a02612ec9612097565b8786866040518563ffffffff1660e01b8152600401612eeb9493929190615931565b6020604051808303816000875af1925050508015612f2757506040513d601f19601f82011682018060405250810190612f249190615992565b60015b612fa9573d8060008114612f57576040519150601f19603f3d011682016040523d82523d6000602084013e612f5c565b606091505b506000815103612fa1576040517f08c379a0000000000000000000000000000000000000000000000000000000008152600401612f989061545f565b60405180910390fd5b805181602001fd5b63150b7a0260e01b7bffffffffffffffffffffffffffffffffffffffffffffffffffffffff1916817bffffffffffffffffffffffffffffffffffffffffffffffffffffffff191614915050612ffe565b600190505b949350505050565b606060405180602001604052806000815250905090565b60606130288261204c565b6000613032613006565b90506000815111613052576040518060200160405280600081525061307d565b8061305c8461367a565b60405160200161306d9291906154bb565b6040516020818303038152906040525b915050919050565b61308f8383613748565b61309c6000848484612e7f565b6130db576040517f08c379a00000000000000000000000000000000000000000000000000000000081526004016130d29061545f565b60405180910390fd5b505050565b600080836040516020016130f49190615a56565b60405160208183030381529060405290508083604051602001613118929190615ac3565b6040516020818303038152906040528051906020012091506040518060400160405280601c81526020017f19457468657265756d205369676e6564204d6573736167653a0a33320000000081525082604051602001613178929190615b0c565b6040516020818303038152906040528051906020012091505092915050565b60008060006131a68585613965565b915091506131b3816139b6565b819250505092915050565b60007f80ac58cd000000000000000000000000000000000000000000000000000000007bffffffffffffffffffffffffffffffffffffffffffffffffffffffff1916827bffffffffffffffffffffffffffffffffffffffffffffffffffffffff1916148061328957507f5b5e139f000000000000000000000000000000000000000000000000000000007bffffffffffffffffffffffffffffffffffffffffffffffffffffffff1916827bffffffffffffffffffffffffffffffffffffffffffffffffffffffff1916145b80613299575061329882613b1c565b5b9050919050565b60606132c68273ffffffffffffffffffffffffffffffffffffffff16601460ff166132cd565b9050919050565b6060600060028360026132e09190615b34565b6132ea9190615b8e565b67ffffffffffffffff81111561330357613302614562565b5b6040519080825280601f01601f1916602001820160405280156133355781602001600182028036833780820191505090505b5090507f30000000000000000000000000000000000000000000000000000000000000008160008151811061336d5761336c615649565b5b60200101907effffffffffffffffffffffffffffffffffffffffffffffffffffffffffffff1916908160001a9053507f7800000000000000000000000000000000000000000000000000000000000000816001815181106133d1576133d0615649565b5b60200101907effffffffffffffffffffffffffffffffffffffffffffffffffffffffffffff1916908160001a905350600060018460026134119190615b34565b61341b9190615b8e565b90505b60018111156134bb577f3031323334353637383961626364656600000000000000000000000000000000600f86166010811061345d5761345c615649565b5b1a60f81b82828151811061347457613473615649565b5b60200101907effffffffffffffffffffffffffffffffffffffffffffffffffffffffffffff1916908160001a905350600485901c9450806134b490615be4565b905061341e565b50600084146134ff576040517f08c379a00000000000000000000000000000000000000000000000000000000081526004016134f690615c59565b60405180910390fd5b8091505092915050565b600061351482610f0b565b9050613524816000846001612e73565b61352d82610f0b565b90506004600083815260200190815260200160002060006101000a81549073ffffffffffffffffffffffffffffffffffffffff02191690556001600360008373ffffffffffffffffffffffffffffffffffffffff1673ffffffffffffffffffffffffffffffffffffffff168152602001908152602001600020600082825403925050819055506002600083815260200190815260200160002060006101000a81549073ffffffffffffffffffffffffffffffffffffffff021916905581600073ffffffffffffffffffffffffffffffffffffffff168273ffffffffffffffffffffffffffffffffffffffff167fddf252ad1be2c89b69c2b068fc378daa952ba7f163c4a11628f55a4df523b3ef60405160405180910390a4613653816000846001612e79565b5050565b6000808273ffffffffffffffffffffffffffffffffffffffff163b119050919050565b60606000600161368984613b86565b01905060008167ffffffffffffffff8111156136a8576136a7614562565b5b6040519080825280601f01601f1916602001820160405280156136da5781602001600182028036833780820191505090505b509050600082602001820190505b60011561373d578080600190039150507f3031323334353637383961626364656600000000000000000000000000000000600a86061a8153600a858161373157613730615c79565b5b049450600085036136e8575b819350505050919050565b600073ffffffffffffffffffffffffffffffffffffffff168273ffffffffffffffffffffffffffffffffffffffff16036137b7576040517f08c379a00000000000000000000000000000000000000000000000000000000081526004016137ae90615cf4565b60405180910390fd5b6137c081612e32565b15613800576040517f08c379a00000000000000000000000000000000000000000000000000000000081526004016137f790615d60565b60405180910390fd5b61380e600083836001612e73565b61381781612e32565b15613857576040517f08c379a000000000000000000000000000000000000000000000000000000000815260040161384e90615d60565b60405180910390fd5b6001600360008473ffffffffffffffffffffffffffffffffffffffff1673ffffffffffffffffffffffffffffffffffffffff16815260200190815260200160002060008282540192505081905550816002600083815260200190815260200160002060006101000a81548173ffffffffffffffffffffffffffffffffffffffff021916908373ffffffffffffffffffffffffffffffffffffffff160217905550808273ffffffffffffffffffffffffffffffffffffffff16600073ffffffffffffffffffffffffffffffffffffffff167fddf252ad1be2c89b69c2b068fc378daa952ba7f163c4a11628f55a4df523b3ef60405160405180910390a4613961600083836001612e79565b5050565b60008060418351036139a65760008060006020860151925060408601519150606086015160001a905061399a87828585613cd9565b945094505050506139af565b60006002915091505b9250929050565b600060048111156139ca576139c9615d80565b5b8160048111156139dd576139dc615d80565b5b0315613b1957600160048111156139f7576139f6615d80565b5b816004811115613a0a57613a09615d80565b5b03613a4a576040517f08c379a0000000000000000000000000000000000000000000000000000000008152600401613a4190615dfb565b60405180910390fd5b60026004811115613a5e57613a5d615d80565b5b816004811115613a7157613a70615d80565b5b03613ab1576040517f08c379a0000000000000000000000000000000000000000000000000000000008152600401613aa890615e67565b60405180910390fd5b60036004811115613ac557613ac4615d80565b5b816004811115613ad857613ad7615d80565b5b03613b18576040517f08c379a0000000000000000000000000000000000000000000000000000000008152600401613b0f90615ef9565b60405180910390fd5b5b50565b60007f01ffc9a7000000000000000000000000000000000000000000000000000000007bffffffffffffffffffffffffffffffffffffffffffffffffffffffff1916827bffffffffffffffffffffffffffffffffffffffffffffffffffffffff1916149050919050565b600080600090507a184f03e93ff9f4daa797ed6e38ed64bf6a1f0100000000000000008310613be4577a184f03e93ff9f4daa797ed6e38ed64bf6a1f0100000000000000008381613bda57613bd9615c79565b5b0492506040810190505b6d04ee2d6d415b85acef81000000008310613c21576d04ee2d6d415b85acef81000000008381613c1757613c16615c79565b5b0492506020810190505b662386f26fc100008310613c5057662386f26fc100008381613c4657613c45615c79565b5b0492506010810190505b6305f5e1008310613c79576305f5e1008381613c6f57613c6e615c79565b5b0492506008810190505b6127108310613c9e576127108381613c9457613c93615c79565b5b0492506004810190505b60648310613cc15760648381613cb757613cb6615c79565b5b0492506002810190505b600a8310613cd0576001810190505b80915050919050565b6000807f7fffffffffffffffffffffffffffffff5d576e7357a4501ddfe92f46681b20a08360001c1115613d14576000600391509150613db2565b600060018787878760405160008152602001604052604051613d399493929190615f35565b6020604051602081039080840390855afa158015613d5b573d6000803e3d6000fd5b505050602060405103519050600073ffffffffffffffffffffffffffffffffffffffff168173ffffffffffffffffffffffffffffffffffffffff1603613da957600060019250925050613db2565b80600092509250505b94509492505050565b6040518060800160405280600081526020016060815260200160608152602001600081525090565b828054613def90614baf565b90600052602060002090601f016020900481019282613e115760008555613e58565b82601f10613e2a57805160ff1916838001178555613e58565b82800160010185558215613e58579182015b82811115613e57578251825591602001919060010190613e3c565b5b509050613e659190613ea9565b5090565b508054613e7590614baf565b6000825580601f10613e875750613ea6565b601f016020900490600052602060002090810190613ea59190613ea9565b5b50565b5b80821115613ec2576000816000905550600101613eaa565b5090565b6000604051905090565b600080fd5b600080fd5b60007fffffffff0000000000000000000000000000000000000000000000000000000082169050919050565b613f0f81613eda565b8114613f1a57600080fd5b50565b600081359050613f2c81613f06565b92915050565b600060208284031215613f4857613f47613ed0565b5b6000613f5684828501613f1d565b91505092915050565b60008115159050919050565b613f7481613f5f565b82525050565b6000602082019050613f8f6000830184613f6b565b92915050565b6000819050919050565b613fa881613f95565b8114613fb357600080fd5b50565b600081359050613fc581613f9f565b92915050565b600060208284031215613fe157613fe0613ed0565b5b6000613fef84828501613fb6565b91505092915050565b600081519050919050565b600082825260208201905092915050565b60005b83811015614032578082015181840152602081019050614017565b83811115614041576000848401525b50505050565b6000601f19601f8301169050919050565b600061406382613ff8565b61406d8185614003565b935061407d818560208601614014565b61408681614047565b840191505092915050565b600060208201905081810360008301526140ab8184614058565b905092915050565b600073ffffffffffffffffffffffffffffffffffffffff82169050919050565b60006140de826140b3565b9050919050565b6140ee816140d3565b82525050565b600060208201905061410960008301846140e5565b92915050565b614118816140d3565b811461412357600080fd5b50565b6000813590506141358161410f565b92915050565b6000806040838503121561415257614151613ed0565b5b600061416085828601614126565b925050602061417185828601613fb6565b9150509250929050565b600080fd5b600080fd5b600080fd5b60008083601f8401126141a05761419f61417b565b5b8235905067ffffffffffffffff8111156141bd576141bc614180565b5b6020830191508360018202830111156141d9576141d8614185565b5b9250929050565b6000806000806000608086880312156141fc576141fb613ed0565b5b600061420a88828901614126565b955050602061421b88828901614126565b945050604061422c88828901613fb6565b935050606086013567ffffffffffffffff81111561424d5761424c613ed5565b5b6142598882890161418a565b92509250509295509295909350565b61427181613eda565b82525050565b600060208201905061428c6000830184614268565b92915050565b6000602082840312156142a8576142a7613ed0565b5b60006142b684828501614126565b91505092915050565b6000806000606084860312156142d8576142d7613ed0565b5b60006142e686828701614126565b93505060206142f786828701614126565b925050604061430886828701613fb6565b9150509250925092565b6000819050919050565b61432581614312565b811461433057600080fd5b50565b6000813590506143428161431c565b92915050565b60006020828403121561435e5761435d613ed0565b5b600061436c84828501614333565b91505092915050565b61437e81614312565b82525050565b60006020820190506143996000830184614375565b92915050565b600080604083850312156143b6576143b5613ed0565b5b60006143c485828601614333565b92505060206143d585828601614126565b9150509250929050565b6143e881613f95565b82525050565b600060208201905061440360008301846143df565b92915050565b61441281613f95565b82525050565b600082825260208201905092915050565b600061443482613ff8565b61443e8185614418565b935061444e818560208601614014565b61445781614047565b840191505092915050565b600060808301600083015161447a6000860182614409565b50602083015184820360208601526144928282614429565b915050604083015184820360408601526144ac8282614429565b91505060608301516144c16060860182614409565b508091505092915050565b600060208201905081810360008301526144e68184614462565b905092915050565b600060a08201905081810360008301526145088188614058565b9050818103602083015261451c8187614058565b905081810360408301526145308186614058565b905081810360608301526145448185614058565b905061455360808301846143df565b9695505050505050565b600080fd5b7f4e487b7100000000000000000000000000000000000000000000000000000000600052604160045260246000fd5b61459a82614047565b810181811067ffffffffffffffff821117156145b9576145b8614562565b5b80604052505050565b60006145cc613ec6565b90506145d88282614591565b919050565b600067ffffffffffffffff8211156145f8576145f7614562565b5b61460182614047565b9050602081019050919050565b82818337600083830152505050565b600061463061462b846145dd565b6145c2565b90508281526020810184848401111561464c5761464b61455d565b5b61465784828561460e565b509392505050565b600082601f8301126146745761467361417b565b5b813561468484826020860161461d565b91505092915050565b600080600080600060a086880312156146a9576146a8613ed0565b5b600086013567ffffffffffffffff8111156146c7576146c6613ed5565b5b6146d38882890161465f565b955050602086013567ffffffffffffffff8111156146f4576146f3613ed5565b5b6147008882890161465f565b945050604086013567ffffffffffffffff81111561472157614720613ed5565b5b61472d8882890161465f565b935050606086013567ffffffffffffffff81111561474e5761474d613ed5565b5b61475a8882890161465f565b925050608061476b88828901613fb6565b9150509295509295909350565b61478181613f5f565b811461478c57600080fd5b50565b60008135905061479e81614778565b92915050565b600080604083850312156147bb576147ba613ed0565b5b60006147c985828601614126565b92505060206147da8582860161478f565b9150509250929050565b600067ffffffffffffffff8211156147ff576147fe614562565b5b61480882614047565b9050602081019050919050565b6000614828614823846147e4565b6145c2565b9050828152602081018484840111156148445761484361455d565b5b61484f84828561460e565b509392505050565b600082601f83011261486c5761486b61417b565b5b813561487c848260208601614815565b91505092915050565b6000806000806080858703121561489f5761489e613ed0565b5b60006148ad87828801614126565b94505060206148be87828801614126565b93505060406148cf87828801613fb6565b925050606085013567ffffffffffffffff8111156148f0576148ef613ed5565b5b6148fc87828801614857565b91505092959194509250565b600060608201905061491d60008301866143df565b818103602083015261492f8185614058565b905061493e60408301846140e5565b949350505050565b6000806040838503121561495d5761495c613ed0565b5b600061496b85828601614126565b925050602083013567ffffffffffffffff81111561498c5761498b613ed5565b5b6149988582860161465f565b9150509250929050565b600080fd5b6000606082840312156149bd576149bc6149a2565b5b81905092915050565b60008083601f8401126149dc576149db61417b565b5b8235905067ffffffffffffffff8111156149f9576149f8614180565b5b602083019150836020820283011115614a1557614a14614185565b5b9250929050565b600080600080600060c08688031215614a3857614a37613ed0565b5b6000614a4688828901614126565b9550506020614a57888289016149a7565b9450506080614a6888828901613fb6565b93505060a086013567ffffffffffffffff811115614a8957614a88613ed5565b5b614a95888289016149c6565b92509250509295509295909350565b60008060408385031215614abb57614aba613ed0565b5b6000614ac985828601613fb6565b925050602083013567ffffffffffffffff811115614aea57614ae9613ed5565b5b614af68582860161465f565b9150509250929050565b60008060408385031215614b1757614b16613ed0565b5b6000614b2585828601613fb6565b9250506020614b3685828601614126565b9150509250929050565b60008060408385031215614b5757614b56613ed0565b5b6000614b6585828601614126565b9250506020614b7685828601614126565b9150509250929050565b7f4e487b7100000000000000000000000000000000000000000000000000000000600052602260045260246000fd5b60006002820490506001821680614bc757607f821691505b602082108103614bda57614bd9614b80565b5b50919050565b7f4552433732313a20617070726f76616c20746f2063757272656e74206f776e6560008201527f7200000000000000000000000000000000000000000000000000000000000000602082015250565b6000614c3c602183614003565b9150614c4782614be0565b604082019050919050565b60006020820190508181036000830152614c6b81614c2f565b9050919050565b7f4552433732313a20617070726f76652063616c6c6572206973206e6f7420746f60008201527f6b656e206f776e6572206f7220617070726f76656420666f7220616c6c000000602082015250565b6000614cce603d83614003565b9150614cd982614c72565b604082019050919050565b60006020820190508181036000830152614cfd81614cc1565b9050919050565b7f416363657373436f6e74726f6c3a2063616e206f6e6c792072656e6f756e636560008201527f20726f6c657320666f722073656c660000000000000000000000000000000000602082015250565b6000614d60602f83614003565b9150614d6b82614d04565b604082019050919050565b60006020820190508181036000830152614d8f81614d53565b9050919050565b7f4552433732313a20696e76616c696420746f6b656e2049440000000000000000600082015250565b6000614dcc601883614003565b9150614dd782614d96565b602082019050919050565b60006020820190508181036000830152614dfb81614dbf565b9050919050565b7f4552433732313a2061646472657373207a65726f206973206e6f74206120766160008201527f6c6964206f776e65720000000000000000000000000000000000000000000000602082015250565b6000614e5e602983614003565b9150614e6982614e02565b604082019050919050565b60006020820190508181036000830152614e8d81614e51565b9050919050565b7f4552433732313a2063616c6c6572206973206e6f7420746f6b656e206f776e6560008201527f72206f7220617070726f76656400000000000000000000000000000000000000602082015250565b6000614ef0602d83614003565b9150614efb82614e94565b604082019050919050565b60006020820190508181036000830152614f1f81614ee3565b9050919050565b7f4e487b7100000000000000000000000000000000000000000000000000000000600052601160045260246000fd5b6000614f6082613f95565b9150614f6b83613f95565b925082821015614f7e57614f7d614f26565b5b828203905092915050565b7f41726520796f75207265616c6c79206f776e6572206f662074686973204e465460008201527f3f00000000000000000000000000000000000000000000000000000000000000602082015250565b6000614fe5602183614003565b9150614ff082614f89565b604082019050919050565b6000602082019050818103600083015261501481614fd8565b9050919050565b7f45544820616d6f756e74206d7573742062652067726561746572207468616e2060008201527f3000000000000000000000000000000000000000000000000000000000000000602082015250565b6000615077602183614003565b91506150828261501b565b604082019050919050565b600060208201905081810360008301526150a68161506a565b9050919050565b600081905092915050565b50565b60006150c86000836150ad565b91506150d3826150b8565b600082019050919050565b60006150e9826150bb565b9150819050919050565b7f4661696c656420746f2073656e64204554480000000000000000000000000000600082015250565b6000615129601283614003565b9150615134826150f3565b602082019050919050565b600060208201905081810360008301526151588161511c565b9050919050565b7f4e6f7420656e6f756768204554482073656e743b20636865636b20707269636560008201527f2100000000000000000000000000000000000000000000000000000000000000602082015250565b60006151bb602183614003565b91506151c68261515f565b604082019050919050565b600060208201905081810360008301526151ea816151ae565b9050919050565b7f4163746976697479206e6f7420617661696c61626c6521000000000000000000600082015250565b6000615227601783614003565b9150615232826151f1565b602082019050919050565b600060208201905081810360008301526152568161521a565b9050919050565b7f4552433732313a207472616e736665722066726f6d20696e636f72726563742060008201527f6f776e6572000000000000000000000000000000000000000000000000000000602082015250565b60006152b9602583614003565b91506152c48261525d565b604082019050919050565b600060208201905081810360008301526152e8816152ac565b9050919050565b7f4552433732313a207472616e7366657220746f20746865207a65726f2061646460008201527f7265737300000000000000000000000000000000000000000000000000000000602082015250565b600061534b602483614003565b9150615356826152ef565b604082019050919050565b6000602082019050818103600083015261537a8161533e565b9050919050565b7f4552433732313a20617070726f766520746f2063616c6c657200000000000000600082015250565b60006153b7601983614003565b91506153c282615381565b602082019050919050565b600060208201905081810360008301526153e6816153aa565b9050919050565b7f4552433732313a207472616e7366657220746f206e6f6e20455243373231526560008201527f63656976657220696d706c656d656e7465720000000000000000000000000000602082015250565b6000615449603283614003565b9150615454826153ed565b604082019050919050565b600060208201905081810360008301526154788161543c565b9050919050565b600081905092915050565b600061549582613ff8565b61549f818561547f565b93506154af818560208601614014565b80840191505092915050565b60006154c7828561548a565b91506154d3828461548a565b91508190509392505050565b7f45524337323155524953746f726167653a2055524920736574206f66206e6f6e60008201527f6578697374656e7420746f6b656e000000000000000000000000000000000000602082015250565b600061553b602e83614003565b9150615546826154df565b604082019050919050565b6000602082019050818103600083015261556a8161552e565b9050919050565b7f6e6f6e636520616c726561647920757365640000000000000000000000000000600082015250565b60006155a7601283614003565b91506155b282615571565b602082019050919050565b600060208201905081810360008301526155d68161559a565b9050919050565b7f6e6f7420656e6f756768207369676e6572730000000000000000000000000000600082015250565b6000615613601283614003565b915061561e826155dd565b602082019050919050565b6000602082019050818103600083015261564281615606565b9050919050565b7f4e487b7100000000000000000000000000000000000000000000000000000000600052603260045260246000fd5b600080fd5b600080fd5b600080fd5b600080833560016020038436030381126156a4576156a3615678565b5b80840192508235915067ffffffffffffffff8211156156c6576156c561567d565b5b6020830192506001820236038313156156e2576156e1615682565b5b509250929050565b7f706f737369626c65206475706c69636174650000000000000000000000000000600082015250565b6000615720601283614003565b915061572b826156ea565b602082019050919050565b6000602082019050818103600083015261574f81615713565b9050919050565b7f6e6f742070617274206f6620636f6e736f727469756d00000000000000000000600082015250565b600061578c601683614003565b915061579782615756565b602082019050919050565b600060208201905081810360008301526157bb8161577f565b9050919050565b60006157cd82613f95565b91507fffffffffffffffffffffffffffffffffffffffffffffffffffffffffffffffff82036157ff576157fe614f26565b5b600182019050919050565b7f416363657373436f6e74726f6c3a206163636f756e7420000000000000000000600082015250565b600061584060178361547f565b915061584b8261580a565b601782019050919050565b7f206973206d697373696e6720726f6c6520000000000000000000000000000000600082015250565b600061588c60118361547f565b915061589782615856565b601182019050919050565b60006158ad82615833565b91506158b9828561548a565b91506158c48261587f565b91506158d0828461548a565b91508190509392505050565b600081519050919050565b600082825260208201905092915050565b6000615903826158dc565b61590d81856158e7565b935061591d818560208601614014565b61592681614047565b840191505092915050565b600060808201905061594660008301876140e5565b61595360208301866140e5565b61596060408301856143df565b818103606083015261597281846158f8565b905095945050505050565b60008151905061598c81613f06565b92915050565b6000602082840312156159a8576159a7613ed0565b5b60006159b68482850161597d565b91505092915050565b60006159ce6020840184613fb6565b905092915050565b60006159e56020840184614126565b905092915050565b6159f6816140d3565b82525050565b60608201615a0d60008301836159bf565b615a1a6000850182614409565b50615a2860208301836159bf565b615a356020850182614409565b50615a4360408301836159d6565b615a5060408501826159ed565b50505050565b6000606082019050615a6b60008301846159fc565b92915050565b6000615a7c826158dc565b615a8681856150ad565b9350615a96818560208601614014565b80840191505092915050565b6000819050919050565b615abd615ab882613f95565b615aa2565b82525050565b6000615acf8285615a71565b9150615adb8284615aac565b6020820191508190509392505050565b6000819050919050565b615b06615b0182614312565b615aeb565b82525050565b6000615b18828561548a565b9150615b248284615af5565b6020820191508190509392505050565b6000615b3f82613f95565b9150615b4a83613f95565b9250817fffffffffffffffffffffffffffffffffffffffffffffffffffffffffffffffff0483118215151615615b8357615b82614f26565b5b828202905092915050565b6000615b9982613f95565b9150615ba483613f95565b9250827fffffffffffffffffffffffffffffffffffffffffffffffffffffffffffffffff03821115615bd957615bd8614f26565b5b828201905092915050565b6000615bef82613f95565b915060008203615c0257615c01614f26565b5b600182039050919050565b7f537472696e67733a20686578206c656e67746820696e73756666696369656e74600082015250565b6000615c43602083614003565b9150615c4e82615c0d565b602082019050919050565b60006020820190508181036000830152615c7281615c36565b9050919050565b7f4e487b7100000000000000000000000000000000000000000000000000000000600052601260045260246000fd5b7f4552433732313a206d696e7420746f20746865207a65726f2061646472657373600082015250565b6000615cde602083614003565b9150615ce982615ca8565b602082019050919050565b60006020820190508181036000830152615d0d81615cd1565b9050919050565b7f4552433732313a20746f6b656e20616c7265616479206d696e74656400000000600082015250565b6000615d4a601c83614003565b9150615d5582615d14565b602082019050919050565b60006020820190508181036000830152615d7981615d3d565b9050919050565b7f4e487b7100000000000000000000000000000000000000000000000000000000600052602160045260246000fd5b7f45434453413a20696e76616c6964207369676e61747572650000000000000000600082015250565b6000615de5601883614003565b9150615df082615daf565b602082019050919050565b60006020820190508181036000830152615e1481615dd8565b9050919050565b7f45434453413a20696e76616c6964207369676e6174757265206c656e67746800600082015250565b6000615e51601f83614003565b9150615e5c82615e1b565b602082019050919050565b60006020820190508181036000830152615e8081615e44565b9050919050565b7f45434453413a20696e76616c6964207369676e6174757265202773272076616c60008201527f7565000000000000000000000000000000000000000000000000000000000000602082015250565b6000615ee3602283614003565b9150615eee82615e87565b604082019050919050565b60006020820190508181036000830152615f1281615ed6565b9050919050565b600060ff82169050919050565b615f2f81615f19565b82525050565b6000608082019050615f4a6000830187614375565b615f576020830186615f26565b615f646040830185614375565b615f716060830184614375565b9594505050505056fea2646970667358221220123fd0c026016ae4b953ec3362689a82d0cd8c80dc1f4fdd3b65530ffc08b5f764736f6c634300080d0033",
  "linkReferences": {},
  "deployedLinkReferences": {}
}