{
  "_format": "hh-sol-artifact-1",
  "contractName": "W3Recicle",
  "sourceName": "contracts/W3Recicle.sol",
  "abi": [
    {
      "inputs": [
        {
          "internalType": "string",
          "name": "_collectionName",
          "type": "string"
        },
        {
          "internalType": "string",
          "name": "_token",
          "type": "string"
        }
      ],
      "stateMutability": "payable",
      "type": "constructor"
    },
    {
      "anonymous": false,
      "inputs": [
        {
          "indexed": true,
          "internalType": "address",
          "name": "owner",
          "type": "address"
        },
        {
          "indexed": true,
          "internalType": "address",
          "name": "approved",
          "type": "address"
        },
        {
          "indexed": true,
          "internalType": "uint256",
          "name": "tokenId",
          "type": "uint256"
        }
      ],
      "name": "Approval",
      "type": "event"
    },
    {
      "anonymous": false,
      "inputs": [
        {
          "indexed": true,
          "internalType": "address",
          "name": "owner",
          "type": "address"
        },
        {
          "indexed": true,
          "internalType": "address",
          "name": "operator",
          "type": "address"
        },
        {
          "indexed": false,
          "internalType": "bool",
          "name": "approved",
          "type": "bool"
        }
      ],
      "name": "ApprovalForAll",
      "type": "event"
    },
    {
      "anonymous": false,
      "inputs": [
        {
          "indexed": false,
          "internalType": "uint256",
          "name": "_fromTokenId",
          "type": "uint256"
        },
        {
          "indexed": false,
          "internalType": "uint256",
          "name": "_toTokenId",
          "type": "uint256"
        }
      ],
      "name": "BatchMetadataUpdate",
      "type": "event"
    },
    {
      "anonymous": false,
      "inputs": [
        {
          "indexed": false,
          "internalType": "uint256",
          "name": "_tokenId",
          "type": "uint256"
        }
      ],
      "name": "MetadataUpdate",
      "type": "event"
    },
    {
      "anonymous": false,
      "inputs": [
        {
          "indexed": false,
          "internalType": "bool",
          "name": "isMinted",
          "type": "bool"
        }
      ],
      "name": "NftMinted",
      "type": "event"
    },
    {
      "anonymous": false,
      "inputs": [
        {
          "indexed": false,
          "internalType": "bool",
          "name": "isMinted",
          "type": "bool"
        }
      ],
      "name": "NftTransferred",
      "type": "event"
    },
    {
      "anonymous": false,
      "inputs": [
        {
          "indexed": true,
          "internalType": "bytes32",
          "name": "role",
          "type": "bytes32"
        },
        {
          "indexed": true,
          "internalType": "bytes32",
          "name": "previousAdminRole",
          "type": "bytes32"
        },
        {
          "indexed": true,
          "internalType": "bytes32",
          "name": "newAdminRole",
          "type": "bytes32"
        }
      ],
      "name": "RoleAdminChanged",
      "type": "event"
    },
    {
      "anonymous": false,
      "inputs": [
        {
          "indexed": true,
          "internalType": "bytes32",
          "name": "role",
          "type": "bytes32"
        },
        {
          "indexed": true,
          "internalType": "address",
          "name": "account",
          "type": "address"
        },
        {
          "indexed": true,
          "internalType": "address",
          "name": "sender",
          "type": "address"
        }
      ],
      "name": "RoleGranted",
      "type": "event"
    },
    {
      "anonymous": false,
      "inputs": [
        {
          "indexed": true,
          "internalType": "bytes32",
          "name": "role",
          "type": "bytes32"
        },
        {
          "indexed": true,
          "internalType": "address",
          "name": "account",
          "type": "address"
        },
        {
          "indexed": true,
          "internalType": "address",
          "name": "sender",
          "type": "address"
        }
      ],
      "name": "RoleRevoked",
      "type": "event"
    },
    {
      "anonymous": false,
      "inputs": [
        {
          "indexed": true,
          "internalType": "address",
          "name": "from",
          "type": "address"
        },
        {
          "indexed": true,
          "internalType": "address",
          "name": "to",
          "type": "address"
        },
        {
          "indexed": true,
          "internalType": "uint256",
          "name": "tokenId",
          "type": "uint256"
        }
      ],
      "name": "Transfer",
      "type": "event"
    },
    {
      "inputs": [
        {
          "internalType": "uint256",
          "name": "tokenId",
          "type": "uint256"
        }
      ],
      "name": "BurnNft",
      "outputs": [],
      "stateMutability": "nonpayable",
      "type": "function"
    },
    {
      "inputs": [],
      "name": "COLLECTPOINT_ROLE",
      "outputs": [
        {
          "internalType": "bytes32",
          "name": "",
          "type": "bytes32"
        }
      ],
      "stateMutability": "view",
      "type": "function"
    },
    {
      "inputs": [],
      "name": "CONSUMER_ROLE",
      "outputs": [
        {
          "internalType": "bytes32",
          "name": "",
          "type": "bytes32"
        }
      ],
      "stateMutability": "view",
      "type": "function"
    },
    {
      "inputs": [],
      "name": "DEFAULT_ADMIN_ROLE",
      "outputs": [
        {
          "internalType": "bytes32",
          "name": "",
          "type": "bytes32"
        }
      ],
      "stateMutability": "view",
      "type": "function"
    },
    {
      "inputs": [
        {
          "internalType": "uint256",
          "name": "",
          "type": "uint256"
        }
      ],
      "name": "_devices",
      "outputs": [
        {
          "internalType": "uint256",
          "name": "productId",
          "type": "uint256"
        },
        {
          "internalType": "string",
          "name": "emei",
          "type": "string"
        },
        {
          "internalType": "address",
          "name": "owner",
          "type": "address"
        }
      ],
      "stateMutability": "view",
      "type": "function"
    },
    {
      "inputs": [
        {
          "internalType": "uint256",
          "name": "",
          "type": "uint256"
        }
      ],
      "name": "_products",
      "outputs": [
        {
          "internalType": "uint256",
          "name": "productId",
          "type": "uint256"
        },
        {
          "internalType": "string",
          "name": "deviceType",
          "type": "string"
        },
        {
          "internalType": "string",
          "name": "model",
          "type": "string"
        },
        {
          "internalType": "string",
          "name": "image",
          "type": "string"
        },
        {
          "internalType": "string",
          "name": "fabricant",
          "type": "string"
        },
        {
          "internalType": "uint256",
          "name": "price",
          "type": "uint256"
        }
      ],
      "stateMutability": "view",
      "type": "function"
    },
    {
      "inputs": [
        {
          "internalType": "uint256",
          "name": "tokenId",
          "type": "uint256"
        }
      ],
      "name": "activityOwnerOf",
      "outputs": [
        {
          "internalType": "address",
          "name": "",
          "type": "address"
        }
      ],
      "stateMutability": "view",
      "type": "function"
    },
    {
      "inputs": [
        {
          "internalType": "address",
          "name": "to",
          "type": "address"
        },
        {
          "internalType": "uint256",
          "name": "tokenId",
          "type": "uint256"
        }
      ],
      "name": "approve",
      "outputs": [],
      "stateMutability": "nonpayable",
      "type": "function"
    },
    {
      "inputs": [
        {
          "internalType": "address",
          "name": "owner",
          "type": "address"
        }
      ],
      "name": "balanceOf",
      "outputs": [
        {
          "internalType": "uint256",
          "name": "",
          "type": "uint256"
        }
      ],
      "stateMutability": "view",
      "type": "function"
    },
    {
      "inputs": [
        {
          "internalType": "address",
          "name": "account",
          "type": "address"
        }
      ],
      "name": "checkAddressLeader",
      "outputs": [
        {
          "internalType": "bool",
          "name": "",
          "type": "bool"
        }
      ],
      "stateMutability": "view",
      "type": "function"
    },
    {
      "inputs": [
        {
          "internalType": "address",
          "name": "account",
          "type": "address"
        }
      ],
      "name": "checkAddressMember",
      "outputs": [
        {
          "internalType": "bool",
          "name": "",
          "type": "bool"
        }
      ],
      "stateMutability": "view",
      "type": "function"
    },
    {
      "inputs": [],
      "name": "deviceIdCounter",
      "outputs": [
        {
          "internalType": "uint256",
          "name": "_value",
          "type": "uint256"
        }
      ],
      "stateMutability": "view",
      "type": "function"
    },
    {
      "inputs": [
        {
          "internalType": "uint256",
          "name": "tokenId",
          "type": "uint256"
        }
      ],
      "name": "getActivity",
      "outputs": [
        {
          "components": [
            {
              "internalType": "uint256",
              "name": "tokenId",
              "type": "uint256"
            },
            {
              "internalType": "string",
              "name": "status",
              "type": "string"
            },
            {
              "internalType": "string",
              "name": "tokenUri",
              "type": "string"
            },
            {
              "internalType": "uint256",
              "name": "reward",
              "type": "uint256"
            }
          ],
          "internalType": "struct W3Recicle.Activity",
          "name": "",
          "type": "tuple"
        }
      ],
      "stateMutability": "view",
      "type": "function"
    },
    {
      "inputs": [
        {
          "internalType": "uint256",
          "name": "tokenId",
          "type": "uint256"
        }
      ],
      "name": "getApproved",
      "outputs": [
        {
          "internalType": "address",
          "name": "",
          "type": "address"
        }
      ],
      "stateMutability": "view",
      "type": "function"
    },
    {
      "inputs": [],
      "name": "getProducts",
      "outputs": [
        {
          "internalType": "string",
          "name": "",
          "type": "string"
        }
      ],
      "stateMutability": "view",
      "type": "function"
    },
    {
      "inputs": [
        {
          "internalType": "bytes32",
          "name": "role",
          "type": "bytes32"
        }
      ],
      "name": "getRoleAdmin",
      "outputs": [
        {
          "internalType": "bytes32",
          "name": "",
          "type": "bytes32"
        }
      ],
      "stateMutability": "view",
      "type": "function"
    },
    {
      "inputs": [
        {
          "internalType": "bytes32",
          "name": "role",
          "type": "bytes32"
        },
        {
          "internalType": "address",
          "name": "account",
          "type": "address"
        }
      ],
      "name": "grantRole",
      "outputs": [],
      "stateMutability": "nonpayable",
      "type": "function"
    },
    {
      "inputs": [
        {
          "internalType": "bytes32",
          "name": "role",
          "type": "bytes32"
        },
        {
          "internalType": "address",
          "name": "account",
          "type": "address"
        }
      ],
      "name": "hasRole",
      "outputs": [
        {
          "internalType": "bool",
          "name": "",
          "type": "bool"
        }
      ],
      "stateMutability": "view",
      "type": "function"
    },
    {
      "inputs": [],
      "name": "idCounter",
      "outputs": [
        {
          "internalType": "uint256",
          "name": "",
          "type": "uint256"
        }
      ],
      "stateMutability": "view",
      "type": "function"
    },
    {
      "inputs": [
        {
          "internalType": "address",
          "name": "owner",
          "type": "address"
        },
        {
          "internalType": "address",
          "name": "operator",
          "type": "address"
        }
      ],
      "name": "isApprovedForAll",
      "outputs": [
        {
          "internalType": "bool",
          "name": "",
          "type": "bool"
        }
      ],
      "stateMutability": "view",
      "type": "function"
    },
    {
      "inputs": [
        {
          "internalType": "uint256",
          "name": "tokenId",
          "type": "uint256"
        }
      ],
      "name": "isAvailableActivity",
      "outputs": [
        {
          "internalType": "bool",
          "name": "",
          "type": "bool"
        }
      ],
      "stateMutability": "view",
      "type": "function"
    },
    {
      "inputs": [],
      "name": "lastMinted",
      "outputs": [
        {
          "internalType": "string",
          "name": "",
          "type": "string"
        }
      ],
      "stateMutability": "view",
      "type": "function"
    },
    {
      "inputs": [],
      "name": "name",
      "outputs": [
        {
          "internalType": "string",
          "name": "",
          "type": "string"
        }
      ],
      "stateMutability": "view",
      "type": "function"
    },
    {
      "inputs": [],
      "name": "nonce",
      "outputs": [
        {
          "internalType": "uint256",
          "name": "",
          "type": "uint256"
        }
      ],
      "stateMutability": "view",
      "type": "function"
    },
    {
      "inputs": [
        {
          "internalType": "address",
          "name": "",
          "type": "address"
        },
        {
          "internalType": "address",
          "name": "",
          "type": "address"
        },
        {
          "internalType": "uint256",
          "name": "",
          "type": "uint256"
        },
        {
          "internalType": "bytes",
          "name": "",
          "type": "bytes"
        }
      ],
      "name": "onERC721Received",
      "outputs": [
        {
          "internalType": "bytes4",
          "name": "",
          "type": "bytes4"
        }
      ],
      "stateMutability": "pure",
      "type": "function"
    },
    {
      "inputs": [],
      "name": "owner",
      "outputs": [
        {
          "internalType": "address",
          "name": "",
          "type": "address"
        }
      ],
      "stateMutability": "view",
      "type": "function"
    },
    {
      "inputs": [
        {
          "internalType": "uint256",
          "name": "tokenId",
          "type": "uint256"
        }
      ],
      "name": "ownerOf",
      "outputs": [
        {
          "internalType": "address",
          "name": "",
          "type": "address"
        }
      ],
      "stateMutability": "view",
      "type": "function"
    },
    {
      "inputs": [],
      "name": "productIdCounter",
      "outputs": [
        {
          "internalType": "uint256",
          "name": "_value",
          "type": "uint256"
        }
      ],
      "stateMutability": "view",
      "type": "function"
    },
    {
      "inputs": [
        {
          "internalType": "uint256",
          "name": "productId",
          "type": "uint256"
        },
        {
          "internalType": "string",
          "name": "emei",
          "type": "string"
        }
      ],
      "name": "registerDevice",
      "outputs": [],
      "stateMutability": "nonpayable",
      "type": "function"
    },
    {
      "inputs": [
        {
          "internalType": "string",
          "name": "deviceType",
          "type": "string"
        },
        {
          "internalType": "string",
          "name": "model",
          "type": "string"
        },
        {
          "internalType": "string",
          "name": "image",
          "type": "string"
        },
        {
          "internalType": "string",
          "name": "fabricant",
          "type": "string"
        },
        {
          "internalType": "uint256",
          "name": "price",
          "type": "uint256"
        }
      ],
      "name": "registerProduct",
      "outputs": [],
      "stateMutability": "nonpayable",
      "type": "function"
    },
    {
      "inputs": [
        {
          "internalType": "bytes32",
          "name": "role",
          "type": "bytes32"
        },
        {
          "internalType": "address",
          "name": "account",
          "type": "address"
        }
      ],
      "name": "renounceRole",
      "outputs": [],
      "stateMutability": "nonpayable",
      "type": "function"
    },
    {
      "inputs": [
        {
          "internalType": "bytes32",
          "name": "role",
          "type": "bytes32"
        },
        {
          "internalType": "address",
          "name": "account",
          "type": "address"
        }
      ],
      "name": "revokeRole",
      "outputs": [],
      "stateMutability": "nonpayable",
      "type": "function"
    },
    {
      "inputs": [
        {
          "internalType": "address",
          "name": "to",
          "type": "address"
        },
        {
          "internalType": "string",
          "name": "ipfsUri",
          "type": "string"
        }
      ],
      "name": "safeMint",
      "outputs": [],
      "stateMutability": "payable",
      "type": "function"
    },
    {
      "inputs": [
        {
          "internalType": "address",
          "name": "from",
          "type": "address"
        },
        {
          "internalType": "address",
          "name": "to",
          "type": "address"
        },
        {
          "internalType": "uint256",
          "name": "tokenId",
          "type": "uint256"
        }
      ],
      "name": "safeTransferFrom",
      "outputs": [],
      "stateMutability": "nonpayable",
      "type": "function"
    },
    {
      "inputs": [
        {
          "internalType": "address",
          "name": "from",
          "type": "address"
        },
        {
          "internalType": "address",
          "name": "to",
          "type": "address"
        },
        {
          "internalType": "uint256",
          "name": "tokenId",
          "type": "uint256"
        },
        {
          "internalType": "bytes",
          "name": "data",
          "type": "bytes"
        }
      ],
      "name": "safeTransferFrom",
      "outputs": [],
      "stateMutability": "nonpayable",
      "type": "function"
    },
    {
      "inputs": [
        {
          "internalType": "uint256",
          "name": "tokenId",
          "type": "uint256"
        },
        {
          "internalType": "address",
          "name": "to",
          "type": "address"
        }
      ],
      "name": "setActivityOwner",
      "outputs": [],
      "stateMutability": "nonpayable",
      "type": "function"
    },
    {
      "inputs": [
        {
          "internalType": "address",
          "name": "operator",
          "type": "address"
        },
        {
          "internalType": "bool",
          "name": "approved",
          "type": "bool"
        }
      ],
      "name": "setApprovalForAll",
      "outputs": [],
      "stateMutability": "nonpayable",
      "type": "function"
    },
    {
      "inputs": [
        {
          "internalType": "bytes4",
          "name": "interfaceId",
          "type": "bytes4"
        }
      ],
      "name": "supportsInterface",
      "outputs": [
        {
          "internalType": "bool",
          "name": "",
          "type": "bool"
        }
      ],
      "stateMutability": "view",
      "type": "function"
    },
    {
      "inputs": [],
      "name": "symbol",
      "outputs": [
        {
          "internalType": "string",
          "name": "",
          "type": "string"
        }
      ],
      "stateMutability": "view",
      "type": "function"
    },
    {
      "inputs": [],
      "name": "tokenIdCounter",
      "outputs": [
        {
          "internalType": "uint256",
          "name": "_value",
          "type": "uint256"
        }
      ],
      "stateMutability": "view",
      "type": "function"
    },
    {
      "inputs": [
        {
          "internalType": "uint256",
          "name": "tokenId",
          "type": "uint256"
        }
      ],
      "name": "tokenURI",
      "outputs": [
        {
          "internalType": "string",
          "name": "",
          "type": "string"
        }
      ],
      "stateMutability": "view",
      "type": "function"
    },
    {
      "inputs": [
        {
          "internalType": "address",
          "name": "from",
          "type": "address"
        },
        {
          "internalType": "address",
          "name": "to",
          "type": "address"
        },
        {
          "internalType": "uint256",
          "name": "tokenId",
          "type": "uint256"
        }
      ],
      "name": "transferFrom",
      "outputs": [],
      "stateMutability": "nonpayable",
      "type": "function"
    },
    {
      "inputs": [
        {
          "internalType": "address",
          "name": "from",
          "type": "address"
        },
        {
          "internalType": "address",
          "name": "_to",
          "type": "address"
        },
        {
          "internalType": "uint256",
          "name": "_tokenId",
          "type": "uint256"
        }
      ],
      "name": "transferNFTWithETH",
      "outputs": [],
      "stateMutability": "payable",
      "type": "function"
    },
    {
      "stateMutability": "payable",
      "type": "receive"
    }
  ],
  "bytecode": "0x608060405260405162005f9338038062005f93833981810160405281019062000029919062000499565b81818160009080519060200190620000439291906200024c565b5080600190805190602001906200005c9291906200024c565b5050506002600e8190555033601160006101000a81548173ffffffffffffffffffffffffffffffffffffffff021916908373ffffffffffffffffffffffffffffffffffffffff160217905550620000df6000801b601160009054906101000a900473ffffffffffffffffffffffffffffffffffffffff16620000e760201b60201c565b505062000582565b620000f98282620001d960201b60201c565b620001d55760016007600084815260200190815260200160002060000160008373ffffffffffffffffffffffffffffffffffffffff1673ffffffffffffffffffffffffffffffffffffffff16815260200190815260200160002060006101000a81548160ff0219169083151502179055506200017a6200024460201b60201c565b73ffffffffffffffffffffffffffffffffffffffff168173ffffffffffffffffffffffffffffffffffffffff16837f2f8788117e7eff1d82e926ec794901d17c78024a50270940304540a733656f0d60405160405180910390a45b5050565b60006007600084815260200190815260200160002060000160008373ffffffffffffffffffffffffffffffffffffffff1673ffffffffffffffffffffffffffffffffffffffff16815260200190815260200160002060009054906101000a900460ff16905092915050565b600033905090565b8280546200025a906200054d565b90600052602060002090601f0160209004810192826200027e5760008555620002ca565b82601f106200029957805160ff1916838001178555620002ca565b82800160010185558215620002ca579182015b82811115620002c9578251825591602001919060010190620002ac565b5b509050620002d99190620002dd565b5090565b5b80821115620002f8576000816000905550600101620002de565b5090565b6000604051905090565b600080fd5b600080fd5b600080fd5b600080fd5b6000601f19601f8301169050919050565b7f4e487b7100000000000000000000000000000000000000000000000000000000600052604160045260246000fd5b62000365826200031a565b810181811067ffffffffffffffff821117156200038757620003866200032b565b5b80604052505050565b60006200039c620002fc565b9050620003aa82826200035a565b919050565b600067ffffffffffffffff821115620003cd57620003cc6200032b565b5b620003d8826200031a565b9050602081019050919050565b60005b8381101562000405578082015181840152602081019050620003e8565b8381111562000415576000848401525b50505050565b6000620004326200042c84620003af565b62000390565b90508281526020810184848401111562000451576200045062000315565b5b6200045e848285620003e5565b509392505050565b600082601f8301126200047e576200047d62000310565b5b8151620004908482602086016200041b565b91505092915050565b60008060408385031215620004b357620004b262000306565b5b600083015167ffffffffffffffff811115620004d457620004d36200030b565b5b620004e28582860162000466565b925050602083015167ffffffffffffffff8111156200050657620005056200030b565b5b620005148582860162000466565b9150509250929050565b7f4e487b7100000000000000000000000000000000000000000000000000000000600052602260045260246000fd5b600060028204905060018216806200056657607f821691505b6020821081036200057c576200057b6200051e565b5b50919050565b615a0180620005926000396000f3fe6080604052600436106102605760003560e01c8063922635d811610144578063c87b56dd116100b6578063d547741f1161007a578063d547741f14610976578063db0c835c1461099f578063e035f484146109c8578063e34a9d49146109f1578063e985e9c514610a2e578063eb08ab2814610a6b57610267565b8063c87b56dd14610897578063c9d0f246146108d4578063c9e65b84146108ff578063cffb6cb51461091b578063d204c45e1461095a57610267565b8063a217fddf11610108578063a217fddf14610799578063a22cb465146107c4578063affed0e0146107ed578063b88d4fde14610818578063bbc19ab014610841578063c29b2f201461086c57610267565b8063922635d81461069b57806395d89b41146106d857806398bdf6f5146107035780639be164d31461072e578063a18c1fab1461077057610267565b8063342ae8c6116101dd57806363fe1f77116101a157806363fe1f771461055157806370a082311461058e5780638d9ecc64146105cb5780638da5cb5b146105f6578063906322c91461062157806391d148541461065e57610267565b8063342ae8c61461046c57806336568abe1461049757806342842e0e146104c05780634bc02da6146104e95780636352211e1461051457610267565b8063150b7a0211610224578063150b7a02146103635780631d1b29bd146103a057806323b872dd146103dd578063248a9ca3146104065780632f2ff15d1461044357610267565b806301ffc9a71461026c5780630588fcb0146102a957806306fdde03146102d2578063081812fc146102fd578063095ea7b31461033a57610267565b3661026757005b600080fd5b34801561027857600080fd5b50610293600480360381019061028e9190613bba565b610a96565b6040516102a09190613c02565b60405180910390f35b3480156102b557600080fd5b506102d060048036038101906102cb9190613c53565b610aa8565b005b3480156102de57600080fd5b506102e7610adf565b6040516102f49190613d19565b60405180910390f35b34801561030957600080fd5b50610324600480360381019061031f9190613c53565b610b71565b6040516103319190613d7c565b60405180910390f35b34801561034657600080fd5b50610361600480360381019061035c9190613dc3565b610bb7565b005b34801561036f57600080fd5b5061038a60048036038101906103859190613e68565b610cce565b6040516103979190613eff565b60405180910390f35b3480156103ac57600080fd5b506103c760048036038101906103c29190613f1a565b610ce3565b6040516103d49190613c02565b60405180910390f35b3480156103e957600080fd5b5061040460048036038101906103ff9190613f47565b610d16565b005b34801561041257600080fd5b5061042d60048036038101906104289190613fd0565b610d77565b60405161043a919061400c565b60405180910390f35b34801561044f57600080fd5b5061046a60048036038101906104659190614027565b610d97565b005b34801561047857600080fd5b50610481610e3b565b60405161048e9190614076565b60405180910390f35b3480156104a357600080fd5b506104be60048036038101906104b99190614027565b610e47565b005b3480156104cc57600080fd5b506104e760048036038101906104e29190613f47565b610eca565b005b3480156104f557600080fd5b506104fe610eea565b60405161050b919061400c565b60405180910390f35b34801561052057600080fd5b5061053b60048036038101906105369190613c53565b610f0e565b6040516105489190613d7c565b60405180910390f35b34801561055d57600080fd5b5061057860048036038101906105739190613c53565b610f94565b6040516105859190613c02565b60405180910390f35b34801561059a57600080fd5b506105b560048036038101906105b09190613f1a565b610fbe565b6040516105c29190614076565b60405180910390f35b3480156105d757600080fd5b506105e0611075565b6040516105ed919061400c565b60405180910390f35b34801561060257600080fd5b5061060b611099565b6040516106189190613d7c565b60405180910390f35b34801561062d57600080fd5b5061064860048036038101906106439190613f1a565b6110bf565b6040516106559190613c02565b60405180910390f35b34801561066a57600080fd5b5061068560048036038101906106809190614027565b6110f2565b6040516106929190613c02565b60405180910390f35b3480156106a757600080fd5b506106c260048036038101906106bd9190613c53565b61115d565b6040516106cf9190614154565b60405180910390f35b3480156106e457600080fd5b506106ed6112c2565b6040516106fa9190613d19565b60405180910390f35b34801561070f57600080fd5b50610718611354565b6040516107259190614076565b60405180910390f35b34801561073a57600080fd5b5061075560048036038101906107509190613c53565b611360565b60405161076796959493929190614176565b60405180910390f35b34801561077c57600080fd5b5061079760048036038101906107929190614323565b6115bc565b005b3480156107a557600080fd5b506107ae6116bb565b6040516107bb919061400c565b60405180910390f35b3480156107d057600080fd5b506107eb60048036038101906107e6919061443a565b6116c2565b005b3480156107f957600080fd5b506108026116d8565b60405161080f9190614076565b60405180910390f35b34801561082457600080fd5b5061083f600480360381019061083a919061451b565b6116de565b005b34801561084d57600080fd5b50610856611740565b6040516108639190613d19565b60405180910390f35b34801561087857600080fd5b506108816117a6565b60405161088e9190613d19565b60405180910390f35b3480156108a357600080fd5b506108be60048036038101906108b99190613c53565b6118f9565b6040516108cb9190613d19565b60405180910390f35b3480156108e057600080fd5b506108e961190b565b6040516108f69190614076565b60405180910390f35b61091960048036038101906109149190613f47565b611917565b005b34801561092757600080fd5b50610942600480360381019061093d9190613c53565b611a95565b6040516109519392919061459e565b60405180910390f35b610974600480360381019061096f91906145dc565b611b67565b005b34801561098257600080fd5b5061099d60048036038101906109989190614027565b611d34565b005b3480156109ab57600080fd5b506109c660048036038101906109c19190614638565b611d55565b005b3480156109d457600080fd5b506109ef60048036038101906109ea9190614694565b611e7a565b005b3480156109fd57600080fd5b50610a186004803603810190610a139190613c53565b611fb3565b604051610a259190613d7c565b60405180910390f35b348015610a3a57600080fd5b50610a556004803603810190610a5091906146d4565b611ff5565b604051610a629190613c02565b60405180910390f35b348015610a7757600080fd5b50610a80612089565b604051610a8d9190614076565b60405180910390f35b6000610aa18261209a565b9050919050565b7f9d56108290ea0bc9c5c59c3ad357dca9d1b29ed7f3ae1443bef2fa2159bdf5e8610ad281612114565b610adb82612128565b5050565b606060008054610aee90614743565b80601f0160208091040260200160405190810160405280929190818152602001828054610b1a90614743565b8015610b675780601f10610b3c57610100808354040283529160200191610b67565b820191906000526020600020905b815481529060010190602001808311610b4a57829003601f168201915b5050505050905090565b6000610b7c82612134565b6004600083815260200190815260200160002060009054906101000a900473ffffffffffffffffffffffffffffffffffffffff169050919050565b6000610bc282610f0e565b90508073ffffffffffffffffffffffffffffffffffffffff168373ffffffffffffffffffffffffffffffffffffffff1603610c32576040517f08c379a0000000000000000000000000000000000000000000000000000000008152600401610c29906147e6565b60405180910390fd5b8073ffffffffffffffffffffffffffffffffffffffff16610c5161217f565b73ffffffffffffffffffffffffffffffffffffffff161480610c805750610c7f81610c7a61217f565b611ff5565b5b610cbf576040517f08c379a0000000000000000000000000000000000000000000000000000000008152600401610cb690614878565b60405180910390fd5b610cc98383612187565b505050565b600063150b7a0260e01b905095945050505050565b6000610d0f7f9d56108290ea0bc9c5c59c3ad357dca9d1b29ed7f3ae1443bef2fa2159bdf5e8836110f2565b9050919050565b6000801b610d2381612114565b610d2e8360016116c2565b610d39848484612240565b7ff6424459656d156a32411176601baac0d0f3e7ffa29398e7cbfbab916565f1726001604051610d699190613c02565b60405180910390a150505050565b600060076000838152602001908152602001600020600101549050919050565b610da36000801b610d77565b610dac81612114565b7f9d56108290ea0bc9c5c59c3ad357dca9d1b29ed7f3ae1443bef2fa2159bdf5e88303610e2c576001600d60008473ffffffffffffffffffffffffffffffffffffffff1673ffffffffffffffffffffffffffffffffffffffff16815260200190815260200160002060006101000a81548160ff0219169083151502179055505b610e368383612539565b505050565b60098060000154905081565b610e4f61217f565b73ffffffffffffffffffffffffffffffffffffffff168173ffffffffffffffffffffffffffffffffffffffff1614610ebc576040517f08c379a0000000000000000000000000000000000000000000000000000000008152600401610eb39061490a565b60405180910390fd5b610ec6828261261a565b5050565b610ee5838383604051806020016040528060008152506116de565b505050565b7f9d56108290ea0bc9c5c59c3ad357dca9d1b29ed7f3ae1443bef2fa2159bdf5e881565b600080610f1a836126fc565b9050600073ffffffffffffffffffffffffffffffffffffffff168173ffffffffffffffffffffffffffffffffffffffff1603610f8b576040517f08c379a0000000000000000000000000000000000000000000000000000000008152600401610f8290614976565b60405180910390fd5b80915050919050565b60006013600083815260200190815260200160002060009054906101000a900460ff169050919050565b60008073ffffffffffffffffffffffffffffffffffffffff168273ffffffffffffffffffffffffffffffffffffffff160361102e576040517f08c379a000000000000000000000000000000000000000000000000000000000815260040161102590614a08565b60405180910390fd5b600360008373ffffffffffffffffffffffffffffffffffffffff1673ffffffffffffffffffffffffffffffffffffffff168152602001908152602001600020549050919050565b7f28339925a2b6deac81ad2bf2d029c067cf13370c774e74d3fb301450978fbe0681565b601160009054906101000a900473ffffffffffffffffffffffffffffffffffffffff1681565b60006110eb7f28339925a2b6deac81ad2bf2d029c067cf13370c774e74d3fb301450978fbe06836110f2565b9050919050565b60006007600084815260200190815260200160002060000160008373ffffffffffffffffffffffffffffffffffffffff1673ffffffffffffffffffffffffffffffffffffffff16815260200190815260200160002060009054906101000a900460ff16905092915050565b611165613a43565b601260008381526020019081526020016000206040518060800160405290816000820154815260200160018201805461119d90614743565b80601f01602080910402602001604051908101604052809291908181526020018280546111c990614743565b80156112165780601f106111eb57610100808354040283529160200191611216565b820191906000526020600020905b8154815290600101906020018083116111f957829003601f168201915b5050505050815260200160028201805461122f90614743565b80601f016020809104026020016040519081016040528092919081815260200182805461125b90614743565b80156112a85780601f1061127d576101008083540402835291602001916112a8565b820191906000526020600020905b81548152906001019060200180831161128b57829003601f168201915b505050505081526020016003820154815250509050919050565b6060600180546112d190614743565b80601f01602080910402602001604051908101604052809291908181526020018280546112fd90614743565b801561134a5780601f1061131f5761010080835404028352916020019161134a565b820191906000526020600020905b81548152906001019060200180831161132d57829003601f168201915b5050505050905090565b60108060000154905081565b600860205280600052604060002060009150905080600001549080600101805461138990614743565b80601f01602080910402602001604051908101604052809291908181526020018280546113b590614743565b80156114025780601f106113d757610100808354040283529160200191611402565b820191906000526020600020905b8154815290600101906020018083116113e557829003601f168201915b50505050509080600201805461141790614743565b80601f016020809104026020016040519081016040528092919081815260200182805461144390614743565b80156114905780601f1061146557610100808354040283529160200191611490565b820191906000526020600020905b81548152906001019060200180831161147357829003601f168201915b5050505050908060030180546114a590614743565b80601f01602080910402602001604051908101604052809291908181526020018280546114d190614743565b801561151e5780601f106114f35761010080835404028352916020019161151e565b820191906000526020600020905b81548152906001019060200180831161150157829003601f168201915b50505050509080600401805461153390614743565b80601f016020809104026020016040519081016040528092919081815260200182805461155f90614743565b80156115ac5780601f10611581576101008083540402835291602001916115ac565b820191906000526020600020905b81548152906001019060200180831161158f57829003601f168201915b5050505050908060050154905086565b6000801b6115c981612114565b60006115d56009612739565b905060006040518060c001604052808381526020018981526020018881526020018781526020018681526020018581525090508060086000848152602001908152602001600020600082015181600001556020820151816001019080519060200190611642929190613a6b565b50604082015181600201908051906020019061165f929190613a6b565b50606082015181600301908051906020019061167c929190613a6b565b506080820151816004019080519060200190611699929190613a6b565b5060a082015181600501559050506116b16009612747565b5050505050505050565b6000801b81565b6116d46116cd61217f565b838361275d565b5050565b600c5481565b6116ef6116e961217f565b836128c9565b61172e576040517f08c379a000000000000000000000000000000000000000000000000000000000815260040161172590614a9a565b60405180910390fd5b61173a8484848461295e565b50505050565b6060600061174e6009612739565b90506000810361177057604051806020016040528060008152509150506117a3565b60008111156117965761178e6001826117899190614ae9565b6118f9565b9150506117a3565b61179f816118f9565b9150505b90565b606060006040518060400160405280600181526020017f5b00000000000000000000000000000000000000000000000000000000000000815250905060005b60016117f16009612739565b6117fb9190614ae9565b8110156118d2576118bd82600860008481526020019081526020016000206001016008600085815260200190815260200160002060020160086000868152602001908152602001600020600301600860008781526020019081526020016000206004016008600088815260200190815260200160002060050154604051602001611889959493929190614df1565b6040516020818303038152906040526040516020016118a9929190614eea565b6040516020818303038152906040526129ba565b915080806118ca90614f0e565b9150506117e5565b50806040516020016118e49190614f7c565b60405160208183030381529060405291505090565b606061190482612b1d565b9050919050565b600b8060000154905081565b8273ffffffffffffffffffffffffffffffffffffffff1661193782610f0e565b73ffffffffffffffffffffffffffffffffffffffff161461198d576040517f08c379a000000000000000000000000000000000000000000000000000000000815260040161198490615014565b60405180910390fd5b600034116119d0576040517f08c379a00000000000000000000000000000000000000000000000000000000081526004016119c7906150a6565b60405180910390fd5b6119db338383610d16565b60006119e682610f0e565b73ffffffffffffffffffffffffffffffffffffffff1634604051611a09906150f7565b60006040518083038185875af1925050503d8060008114611a46576040519150601f19603f3d011682016040523d82523d6000602084013e611a4b565b606091505b5050905080611a8f576040517f08c379a0000000000000000000000000000000000000000000000000000000008152600401611a8690615158565b60405180910390fd5b50505050565b600a602052806000526040600020600091509050806000015490806001018054611abe90614743565b80601f0160208091040260200160405190810160405280929190818152602001828054611aea90614743565b8015611b375780601f10611b0c57610100808354040283529160200191611b37565b820191906000526020600020905b815481529060010190602001808311611b1a57829003601f168201915b5050505050908060020160009054906101000a900473ffffffffffffffffffffffffffffffffffffffff16905083565b7f9d56108290ea0bc9c5c59c3ad357dca9d1b29ed7f3ae1443bef2fa2159bdf5e8611b9181612114565b6001341015611bd5576040517f08c379a0000000000000000000000000000000000000000000000000000000008152600401611bcc906151ea565b60405180910390fd5b6000611be16009612739565b9050611bed6009612747565b611bf78482612c2f565b611c018184612c4d565b611c09613a43565b818160000181815250508381604001819052506040518060400160405280600981526020017f417661696c61626c65000000000000000000000000000000000000000000000081525081602001819052503481606001818152505060016013600084815260200190815260200160002060006101000a81548160ff0219169083151502179055508060126000848152602001908152602001600020600082015181600001556020820151816001019080519060200190611cca929190613a6b565b506040820151816002019080519060200190611ce7929190613a6b565b50606082015181600301559050507f20ca71800840a1730c265dcac5f68ec9daffe929561a6ed11f49ada5e4f7a31a6001604051611d259190613c02565b60405180910390a15050505050565b611d3d82610d77565b611d4681612114565b611d50838361261a565b505050565b7f9d56108290ea0bc9c5c59c3ad357dca9d1b29ed7f3ae1443bef2fa2159bdf5e8611d7f81612114565b60006040518060600160405280858152602001848152602001601160009054906101000a900473ffffffffffffffffffffffffffffffffffffffff1673ffffffffffffffffffffffffffffffffffffffff1681525090506000611de2600b612739565b905081600a6000838152602001908152602001600020600082015181600001556020820151816001019080519060200190611e1e929190613a6b565b5060408201518160020160006101000a81548173ffffffffffffffffffffffffffffffffffffffff021916908373ffffffffffffffffffffffffffffffffffffffff160217905550905050611e73600b612747565b5050505050565b6013600083815260200190815260200160002060009054906101000a900460ff16611eda576040517f08c379a0000000000000000000000000000000000000000000000000000000008152600401611ed190615256565b60405180910390fd5b6040518060400160405280600b81526020017f496e2050726f6772657373000000000000000000000000000000000000000000815250601260008481526020019081526020016000206001019080519060200190611f39929190613a6b565b506013600083815260200190815260200160002060006101000a81549060ff0219169055806014600084815260200190815260200160002060006101000a81548173ffffffffffffffffffffffffffffffffffffffff021916908373ffffffffffffffffffffffffffffffffffffffff1602179055505050565b6000806014600084815260200190815260200160002060009054906101000a900473ffffffffffffffffffffffffffffffffffffffff16905080915050919050565b6000600560008473ffffffffffffffffffffffffffffffffffffffff1673ffffffffffffffffffffffffffffffffffffffff16815260200190815260200160002060008373ffffffffffffffffffffffffffffffffffffffff1673ffffffffffffffffffffffffffffffffffffffff16815260200190815260200160002060009054906101000a900460ff16905092915050565b60006120956009612739565b905090565b60007f7965db0b000000000000000000000000000000000000000000000000000000007bffffffffffffffffffffffffffffffffffffffffffffffffffffffff1916827bffffffffffffffffffffffffffffffffffffffffffffffffffffffff1916148061210d575061210c82612cf8565b5b9050919050565b6121258161212061217f565b612d59565b50565b61213181612dde565b50565b61213d81612e31565b61217c576040517f08c379a000000000000000000000000000000000000000000000000000000000815260040161217390614976565b60405180910390fd5b50565b600033905090565b816004600083815260200190815260200160002060006101000a81548173ffffffffffffffffffffffffffffffffffffffff021916908373ffffffffffffffffffffffffffffffffffffffff160217905550808273ffffffffffffffffffffffffffffffffffffffff166121fa83610f0e565b73ffffffffffffffffffffffffffffffffffffffff167f8c5be1e5ebec7d5bd14f71427d1e84f3dd0314c0f7b2291e5b200ac8c7c3b92560405160405180910390a45050565b8273ffffffffffffffffffffffffffffffffffffffff1661226082610f0e565b73ffffffffffffffffffffffffffffffffffffffff16146122b6576040517f08c379a00000000000000000000000000000000000000000000000000000000081526004016122ad906152e8565b60405180910390fd5b600073ffffffffffffffffffffffffffffffffffffffff168273ffffffffffffffffffffffffffffffffffffffff1603612325576040517f08c379a000000000000000000000000000000000000000000000000000000000815260040161231c9061537a565b60405180910390fd5b6123328383836001612e72565b8273ffffffffffffffffffffffffffffffffffffffff1661235282610f0e565b73ffffffffffffffffffffffffffffffffffffffff16146123a8576040517f08c379a000000000000000000000000000000000000000000000000000000000815260040161239f906152e8565b60405180910390fd5b6004600082815260200190815260200160002060006101000a81549073ffffffffffffffffffffffffffffffffffffffff02191690556001600360008573ffffffffffffffffffffffffffffffffffffffff1673ffffffffffffffffffffffffffffffffffffffff168152602001908152602001600020600082825403925050819055506001600360008473ffffffffffffffffffffffffffffffffffffffff1673ffffffffffffffffffffffffffffffffffffffff16815260200190815260200160002060008282540192505081905550816002600083815260200190815260200160002060006101000a81548173ffffffffffffffffffffffffffffffffffffffff021916908373ffffffffffffffffffffffffffffffffffffffff160217905550808273ffffffffffffffffffffffffffffffffffffffff168473ffffffffffffffffffffffffffffffffffffffff167fddf252ad1be2c89b69c2b068fc378daa952ba7f163c4a11628f55a4df523b3ef60405160405180910390a46125348383836001612e78565b505050565b61254382826110f2565b6126165760016007600084815260200190815260200160002060000160008373ffffffffffffffffffffffffffffffffffffffff1673ffffffffffffffffffffffffffffffffffffffff16815260200190815260200160002060006101000a81548160ff0219169083151502179055506125bb61217f565b73ffffffffffffffffffffffffffffffffffffffff168173ffffffffffffffffffffffffffffffffffffffff16837f2f8788117e7eff1d82e926ec794901d17c78024a50270940304540a733656f0d60405160405180910390a45b5050565b61262482826110f2565b156126f85760006007600084815260200190815260200160002060000160008373ffffffffffffffffffffffffffffffffffffffff1673ffffffffffffffffffffffffffffffffffffffff16815260200190815260200160002060006101000a81548160ff02191690831515021790555061269d61217f565b73ffffffffffffffffffffffffffffffffffffffff168173ffffffffffffffffffffffffffffffffffffffff16837ff6391f5c32d9c69d2a47ea670b442974b53935d1edc7fd64eb21e047a839171b60405160405180910390a45b5050565b60006002600083815260200190815260200160002060009054906101000a900473ffffffffffffffffffffffffffffffffffffffff169050919050565b600081600001549050919050565b6001816000016000828254019250508190555050565b8173ffffffffffffffffffffffffffffffffffffffff168373ffffffffffffffffffffffffffffffffffffffff16036127cb576040517f08c379a00000000000000000000000000000000000000000000000000000000081526004016127c2906153e6565b60405180910390fd5b80600560008573ffffffffffffffffffffffffffffffffffffffff1673ffffffffffffffffffffffffffffffffffffffff16815260200190815260200160002060008473ffffffffffffffffffffffffffffffffffffffff1673ffffffffffffffffffffffffffffffffffffffff16815260200190815260200160002060006101000a81548160ff0219169083151502179055508173ffffffffffffffffffffffffffffffffffffffff168373ffffffffffffffffffffffffffffffffffffffff167f17307eab39ab6107e8899845ad3d59bd9653f200f220920489ca2b5937696c31836040516128bc9190613c02565b60405180910390a3505050565b6000806128d583610f0e565b90508073ffffffffffffffffffffffffffffffffffffffff168473ffffffffffffffffffffffffffffffffffffffff16148061291757506129168185611ff5565b5b8061295557508373ffffffffffffffffffffffffffffffffffffffff1661293d84610b71565b73ffffffffffffffffffffffffffffffffffffffff16145b91505092915050565b612969848484612240565b61297584848484612e7e565b6129b4576040517f08c379a00000000000000000000000000000000000000000000000000000000081526004016129ab90615478565b60405180910390fd5b50505050565b606060008251036129dc57604051806020016040528060008152509050612b18565b600060405180606001604052806040815260200161598c6040913990506000600360028551612a0b9190615498565b612a15919061551d565b6004612a21919061554e565b67ffffffffffffffff811115612a3a57612a396141f8565b5b6040519080825280601f01601f191660200182016040528015612a6c5781602001600182028036833780820191505090505b509050600182016020820185865187015b80821015612ad8576003820191508151603f8160121c168501518453600184019350603f81600c1c168501518453600184019350603f8160061c168501518453600184019350603f8116850151845360018401935050612a7d565b5050600386510660018114612af45760028114612b0757612b0f565b603d6001830353603d6002830353612b0f565b603d60018303535b50505080925050505b919050565b6060612b2882612134565b6000600660008481526020019081526020016000208054612b4890614743565b80601f0160208091040260200160405190810160405280929190818152602001828054612b7490614743565b8015612bc15780601f10612b9657610100808354040283529160200191612bc1565b820191906000526020600020905b815481529060010190602001808311612ba457829003601f168201915b505050505090506000612bd2613005565b90506000815103612be7578192505050612c2a565b600082511115612c1c578082604051602001612c04929190614eea565b60405160208183030381529060405292505050612c2a565b612c258461301c565b925050505b919050565b612c49828260405180602001604052806000815250613084565b5050565b612c5682612e31565b612c95576040517f08c379a0000000000000000000000000000000000000000000000000000000008152600401612c8c9061561a565b60405180910390fd5b80600660008481526020019081526020016000209080519060200190612cbc929190613a6b565b507ff8e1a15aba9398e019f0b49df1a4fde98ee17ae345cb5f6b5e2c27f5033e8ce782604051612cec9190614076565b60405180910390a15050565b6000634906490660e01b7bffffffffffffffffffffffffffffffffffffffffffffffffffffffff1916827bffffffffffffffffffffffffffffffffffffffffffffffffffffffff19161480612d525750612d51826130df565b5b9050919050565b612d6382826110f2565b612dda57612d70816131c1565b612d7e8360001c60206131ee565b604051602001612d8f9291906156d2565b6040516020818303038152906040526040517f08c379a0000000000000000000000000000000000000000000000000000000008152600401612dd19190613d19565b60405180910390fd5b5050565b612de78161342a565b6000600660008381526020019081526020016000208054612e0790614743565b905014612e2e57600660008281526020019081526020016000206000612e2d9190613af1565b5b50565b60008073ffffffffffffffffffffffffffffffffffffffff16612e53836126fc565b73ffffffffffffffffffffffffffffffffffffffff1614159050919050565b50505050565b50505050565b6000612e9f8473ffffffffffffffffffffffffffffffffffffffff16613578565b15612ff8578373ffffffffffffffffffffffffffffffffffffffff1663150b7a02612ec861217f565b8786866040518563ffffffff1660e01b8152600401612eea9493929190615761565b6020604051808303816000875af1925050508015612f2657506040513d601f19601f82011682018060405250810190612f2391906157c2565b60015b612fa8573d8060008114612f56576040519150601f19603f3d011682016040523d82523d6000602084013e612f5b565b606091505b506000815103612fa0576040517f08c379a0000000000000000000000000000000000000000000000000000000008152600401612f9790615478565b60405180910390fd5b805181602001fd5b63150b7a0260e01b7bffffffffffffffffffffffffffffffffffffffffffffffffffffffff1916817bffffffffffffffffffffffffffffffffffffffffffffffffffffffff191614915050612ffd565b600190505b949350505050565b606060405180602001604052806000815250905090565b606061302782612134565b6000613031613005565b90506000815111613051576040518060200160405280600081525061307c565b8061305b8461359b565b60405160200161306c929190614eea565b6040516020818303038152906040525b915050919050565b61308e8383613669565b61309b6000848484612e7e565b6130da576040517f08c379a00000000000000000000000000000000000000000000000000000000081526004016130d190615478565b60405180910390fd5b505050565b60007f80ac58cd000000000000000000000000000000000000000000000000000000007bffffffffffffffffffffffffffffffffffffffffffffffffffffffff1916827bffffffffffffffffffffffffffffffffffffffffffffffffffffffff191614806131aa57507f5b5e139f000000000000000000000000000000000000000000000000000000007bffffffffffffffffffffffffffffffffffffffffffffffffffffffff1916827bffffffffffffffffffffffffffffffffffffffffffffffffffffffff1916145b806131ba57506131b982613886565b5b9050919050565b60606131e78273ffffffffffffffffffffffffffffffffffffffff16601460ff166131ee565b9050919050565b606060006002836002613201919061554e565b61320b9190615498565b67ffffffffffffffff811115613224576132236141f8565b5b6040519080825280601f01601f1916602001820160405280156132565781602001600182028036833780820191505090505b5090507f30000000000000000000000000000000000000000000000000000000000000008160008151811061328e5761328d6157ef565b5b60200101907effffffffffffffffffffffffffffffffffffffffffffffffffffffffffffff1916908160001a9053507f7800000000000000000000000000000000000000000000000000000000000000816001815181106132f2576132f16157ef565b5b60200101907effffffffffffffffffffffffffffffffffffffffffffffffffffffffffffff1916908160001a90535060006001846002613332919061554e565b61333c9190615498565b90505b60018111156133dc577f3031323334353637383961626364656600000000000000000000000000000000600f86166010811061337e5761337d6157ef565b5b1a60f81b828281518110613395576133946157ef565b5b60200101907effffffffffffffffffffffffffffffffffffffffffffffffffffffffffffff1916908160001a905350600485901c9450806133d59061581e565b905061333f565b5060008414613420576040517f08c379a000000000000000000000000000000000000000000000000000000000815260040161341790615893565b60405180910390fd5b8091505092915050565b600061343582610f0e565b9050613445816000846001612e72565b61344e82610f0e565b90506004600083815260200190815260200160002060006101000a81549073ffffffffffffffffffffffffffffffffffffffff02191690556001600360008373ffffffffffffffffffffffffffffffffffffffff1673ffffffffffffffffffffffffffffffffffffffff168152602001908152602001600020600082825403925050819055506002600083815260200190815260200160002060006101000a81549073ffffffffffffffffffffffffffffffffffffffff021916905581600073ffffffffffffffffffffffffffffffffffffffff168273ffffffffffffffffffffffffffffffffffffffff167fddf252ad1be2c89b69c2b068fc378daa952ba7f163c4a11628f55a4df523b3ef60405160405180910390a4613574816000846001612e78565b5050565b6000808273ffffffffffffffffffffffffffffffffffffffff163b119050919050565b6060600060016135aa846138f0565b01905060008167ffffffffffffffff8111156135c9576135c86141f8565b5b6040519080825280601f01601f1916602001820160405280156135fb5781602001600182028036833780820191505090505b509050600082602001820190505b60011561365e578080600190039150507f3031323334353637383961626364656600000000000000000000000000000000600a86061a8153600a8581613652576136516154ee565b5b04945060008503613609575b819350505050919050565b600073ffffffffffffffffffffffffffffffffffffffff168273ffffffffffffffffffffffffffffffffffffffff16036136d8576040517f08c379a00000000000000000000000000000000000000000000000000000000081526004016136cf906158ff565b60405180910390fd5b6136e181612e31565b15613721576040517f08c379a00000000000000000000000000000000000000000000000000000000081526004016137189061596b565b60405180910390fd5b61372f600083836001612e72565b61373881612e31565b15613778576040517f08c379a000000000000000000000000000000000000000000000000000000000815260040161376f9061596b565b60405180910390fd5b6001600360008473ffffffffffffffffffffffffffffffffffffffff1673ffffffffffffffffffffffffffffffffffffffff16815260200190815260200160002060008282540192505081905550816002600083815260200190815260200160002060006101000a81548173ffffffffffffffffffffffffffffffffffffffff021916908373ffffffffffffffffffffffffffffffffffffffff160217905550808273ffffffffffffffffffffffffffffffffffffffff16600073ffffffffffffffffffffffffffffffffffffffff167fddf252ad1be2c89b69c2b068fc378daa952ba7f163c4a11628f55a4df523b3ef60405160405180910390a4613882600083836001612e78565b5050565b60007f01ffc9a7000000000000000000000000000000000000000000000000000000007bffffffffffffffffffffffffffffffffffffffffffffffffffffffff1916827bffffffffffffffffffffffffffffffffffffffffffffffffffffffff1916149050919050565b600080600090507a184f03e93ff9f4daa797ed6e38ed64bf6a1f010000000000000000831061394e577a184f03e93ff9f4daa797ed6e38ed64bf6a1f0100000000000000008381613944576139436154ee565b5b0492506040810190505b6d04ee2d6d415b85acef8100000000831061398b576d04ee2d6d415b85acef81000000008381613981576139806154ee565b5b0492506020810190505b662386f26fc1000083106139ba57662386f26fc1000083816139b0576139af6154ee565b5b0492506010810190505b6305f5e10083106139e3576305f5e10083816139d9576139d86154ee565b5b0492506008810190505b6127108310613a085761271083816139fe576139fd6154ee565b5b0492506004810190505b60648310613a2b5760648381613a2157613a206154ee565b5b0492506002810190505b600a8310613a3a576001810190505b80915050919050565b6040518060800160405280600081526020016060815260200160608152602001600081525090565b828054613a7790614743565b90600052602060002090601f016020900481019282613a995760008555613ae0565b82601f10613ab257805160ff1916838001178555613ae0565b82800160010185558215613ae0579182015b82811115613adf578251825591602001919060010190613ac4565b5b509050613aed9190613b31565b5090565b508054613afd90614743565b6000825580601f10613b0f5750613b2e565b601f016020900490600052602060002090810190613b2d9190613b31565b5b50565b5b80821115613b4a576000816000905550600101613b32565b5090565b6000604051905090565b600080fd5b600080fd5b60007fffffffff0000000000000000000000000000000000000000000000000000000082169050919050565b613b9781613b62565b8114613ba257600080fd5b50565b600081359050613bb481613b8e565b92915050565b600060208284031215613bd057613bcf613b58565b5b6000613bde84828501613ba5565b91505092915050565b60008115159050919050565b613bfc81613be7565b82525050565b6000602082019050613c176000830184613bf3565b92915050565b6000819050919050565b613c3081613c1d565b8114613c3b57600080fd5b50565b600081359050613c4d81613c27565b92915050565b600060208284031215613c6957613c68613b58565b5b6000613c7784828501613c3e565b91505092915050565b600081519050919050565b600082825260208201905092915050565b60005b83811015613cba578082015181840152602081019050613c9f565b83811115613cc9576000848401525b50505050565b6000601f19601f8301169050919050565b6000613ceb82613c80565b613cf58185613c8b565b9350613d05818560208601613c9c565b613d0e81613ccf565b840191505092915050565b60006020820190508181036000830152613d338184613ce0565b905092915050565b600073ffffffffffffffffffffffffffffffffffffffff82169050919050565b6000613d6682613d3b565b9050919050565b613d7681613d5b565b82525050565b6000602082019050613d916000830184613d6d565b92915050565b613da081613d5b565b8114613dab57600080fd5b50565b600081359050613dbd81613d97565b92915050565b60008060408385031215613dda57613dd9613b58565b5b6000613de885828601613dae565b9250506020613df985828601613c3e565b9150509250929050565b600080fd5b600080fd5b600080fd5b60008083601f840112613e2857613e27613e03565b5b8235905067ffffffffffffffff811115613e4557613e44613e08565b5b602083019150836001820283011115613e6157613e60613e0d565b5b9250929050565b600080600080600060808688031215613e8457613e83613b58565b5b6000613e9288828901613dae565b9550506020613ea388828901613dae565b9450506040613eb488828901613c3e565b935050606086013567ffffffffffffffff811115613ed557613ed4613b5d565b5b613ee188828901613e12565b92509250509295509295909350565b613ef981613b62565b82525050565b6000602082019050613f146000830184613ef0565b92915050565b600060208284031215613f3057613f2f613b58565b5b6000613f3e84828501613dae565b91505092915050565b600080600060608486031215613f6057613f5f613b58565b5b6000613f6e86828701613dae565b9350506020613f7f86828701613dae565b9250506040613f9086828701613c3e565b9150509250925092565b6000819050919050565b613fad81613f9a565b8114613fb857600080fd5b50565b600081359050613fca81613fa4565b92915050565b600060208284031215613fe657613fe5613b58565b5b6000613ff484828501613fbb565b91505092915050565b61400681613f9a565b82525050565b60006020820190506140216000830184613ffd565b92915050565b6000806040838503121561403e5761403d613b58565b5b600061404c85828601613fbb565b925050602061405d85828601613dae565b9150509250929050565b61407081613c1d565b82525050565b600060208201905061408b6000830184614067565b92915050565b61409a81613c1d565b82525050565b600082825260208201905092915050565b60006140bc82613c80565b6140c681856140a0565b93506140d6818560208601613c9c565b6140df81613ccf565b840191505092915050565b60006080830160008301516141026000860182614091565b506020830151848203602086015261411a82826140b1565b9150506040830151848203604086015261413482826140b1565b91505060608301516141496060860182614091565b508091505092915050565b6000602082019050818103600083015261416e81846140ea565b905092915050565b600060c08201905061418b6000830189614067565b818103602083015261419d8188613ce0565b905081810360408301526141b18187613ce0565b905081810360608301526141c58186613ce0565b905081810360808301526141d98185613ce0565b90506141e860a0830184614067565b979650505050505050565b600080fd5b7f4e487b7100000000000000000000000000000000000000000000000000000000600052604160045260246000fd5b61423082613ccf565b810181811067ffffffffffffffff8211171561424f5761424e6141f8565b5b80604052505050565b6000614262613b4e565b905061426e8282614227565b919050565b600067ffffffffffffffff82111561428e5761428d6141f8565b5b61429782613ccf565b9050602081019050919050565b82818337600083830152505050565b60006142c66142c184614273565b614258565b9050828152602081018484840111156142e2576142e16141f3565b5b6142ed8482856142a4565b509392505050565b600082601f83011261430a57614309613e03565b5b813561431a8482602086016142b3565b91505092915050565b600080600080600060a0868803121561433f5761433e613b58565b5b600086013567ffffffffffffffff81111561435d5761435c613b5d565b5b614369888289016142f5565b955050602086013567ffffffffffffffff81111561438a57614389613b5d565b5b614396888289016142f5565b945050604086013567ffffffffffffffff8111156143b7576143b6613b5d565b5b6143c3888289016142f5565b935050606086013567ffffffffffffffff8111156143e4576143e3613b5d565b5b6143f0888289016142f5565b925050608061440188828901613c3e565b9150509295509295909350565b61441781613be7565b811461442257600080fd5b50565b6000813590506144348161440e565b92915050565b6000806040838503121561445157614450613b58565b5b600061445f85828601613dae565b925050602061447085828601614425565b9150509250929050565b600067ffffffffffffffff821115614495576144946141f8565b5b61449e82613ccf565b9050602081019050919050565b60006144be6144b98461447a565b614258565b9050828152602081018484840111156144da576144d96141f3565b5b6144e58482856142a4565b509392505050565b600082601f83011261450257614501613e03565b5b81356145128482602086016144ab565b91505092915050565b6000806000806080858703121561453557614534613b58565b5b600061454387828801613dae565b945050602061455487828801613dae565b935050604061456587828801613c3e565b925050606085013567ffffffffffffffff81111561458657614585613b5d565b5b614592878288016144ed565b91505092959194509250565b60006060820190506145b36000830186614067565b81810360208301526145c58185613ce0565b90506145d46040830184613d6d565b949350505050565b600080604083850312156145f3576145f2613b58565b5b600061460185828601613dae565b925050602083013567ffffffffffffffff81111561462257614621613b5d565b5b61462e858286016142f5565b9150509250929050565b6000806040838503121561464f5761464e613b58565b5b600061465d85828601613c3e565b925050602083013567ffffffffffffffff81111561467e5761467d613b5d565b5b61468a858286016142f5565b9150509250929050565b600080604083850312156146ab576146aa613b58565b5b60006146b985828601613c3e565b92505060206146ca85828601613dae565b9150509250929050565b600080604083850312156146eb576146ea613b58565b5b60006146f985828601613dae565b925050602061470a85828601613dae565b9150509250929050565b7f4e487b7100000000000000000000000000000000000000000000000000000000600052602260045260246000fd5b6000600282049050600182168061475b57607f821691505b60208210810361476e5761476d614714565b5b50919050565b7f4552433732313a20617070726f76616c20746f2063757272656e74206f776e6560008201527f7200000000000000000000000000000000000000000000000000000000000000602082015250565b60006147d0602183613c8b565b91506147db82614774565b604082019050919050565b600060208201905081810360008301526147ff816147c3565b9050919050565b7f4552433732313a20617070726f76652063616c6c6572206973206e6f7420746f60008201527f6b656e206f776e6572206f7220617070726f76656420666f7220616c6c000000602082015250565b6000614862603d83613c8b565b915061486d82614806565b604082019050919050565b6000602082019050818103600083015261489181614855565b9050919050565b7f416363657373436f6e74726f6c3a2063616e206f6e6c792072656e6f756e636560008201527f20726f6c657320666f722073656c660000000000000000000000000000000000602082015250565b60006148f4602f83613c8b565b91506148ff82614898565b604082019050919050565b60006020820190508181036000830152614923816148e7565b9050919050565b7f4552433732313a20696e76616c696420746f6b656e2049440000000000000000600082015250565b6000614960601883613c8b565b915061496b8261492a565b602082019050919050565b6000602082019050818103600083015261498f81614953565b9050919050565b7f4552433732313a2061646472657373207a65726f206973206e6f74206120766160008201527f6c6964206f776e65720000000000000000000000000000000000000000000000602082015250565b60006149f2602983613c8b565b91506149fd82614996565b604082019050919050565b60006020820190508181036000830152614a21816149e5565b9050919050565b7f4552433732313a2063616c6c6572206973206e6f7420746f6b656e206f776e6560008201527f72206f7220617070726f76656400000000000000000000000000000000000000602082015250565b6000614a84602d83613c8b565b9150614a8f82614a28565b604082019050919050565b60006020820190508181036000830152614ab381614a77565b9050919050565b7f4e487b7100000000000000000000000000000000000000000000000000000000600052601160045260246000fd5b6000614af482613c1d565b9150614aff83613c1d565b925082821015614b1257614b11614aba565b5b828203905092915050565b600081905092915050565b7f7b2764657669636554797065273a202700000000000000000000000000000000600082015250565b6000614b5e601083614b1d565b9150614b6982614b28565b601082019050919050565b60008190508160005260206000209050919050565b60008154614b9681614743565b614ba08186614b1d565b94506001821660008114614bbb5760018114614bcc57614bff565b60ff19831686528186019350614bff565b614bd585614b74565b60005b83811015614bf757815481890152600182019150602081019050614bd8565b838801955050505b50505092915050565b7f272c000000000000000000000000000000000000000000000000000000000000600082015250565b6000614c3e600283614b1d565b9150614c4982614c08565b600282019050919050565b7f276d6f64656c273a202700000000000000000000000000000000000000000000600082015250565b6000614c8a600a83614b1d565b9150614c9582614c54565b600a82019050919050565b7f27696d616765273a202700000000000000000000000000000000000000000000600082015250565b6000614cd6600a83614b1d565b9150614ce182614ca0565b600a82019050919050565b7f27666162726963616e74273a2027000000000000000000000000000000000000600082015250565b6000614d22600e83614b1d565b9150614d2d82614cec565b600e82019050919050565b7f277072696365273a202700000000000000000000000000000000000000000000600082015250565b6000614d6e600a83614b1d565b9150614d7982614d38565b600a82019050919050565b6000819050919050565b614d9f614d9a82613c1d565b614d84565b82525050565b7f7d2c000000000000000000000000000000000000000000000000000000000000600082015250565b6000614ddb600283614b1d565b9150614de682614da5565b600282019050919050565b6000614dfc82614b51565b9150614e088288614b89565b9150614e1382614c31565b9150614e1e82614c7d565b9150614e2a8287614b89565b9150614e3582614c31565b9150614e4082614cc9565b9150614e4c8286614b89565b9150614e5782614c31565b9150614e6282614d15565b9150614e6e8285614b89565b9150614e7982614c31565b9150614e8482614d61565b9150614e908284614d8e565b602082019150614e9f82614c31565b9150614eaa82614dce565b91508190509695505050505050565b6000614ec482613c80565b614ece8185614b1d565b9350614ede818560208601613c9c565b80840191505092915050565b6000614ef68285614eb9565b9150614f028284614eb9565b91508190509392505050565b6000614f1982613c1d565b91507fffffffffffffffffffffffffffffffffffffffffffffffffffffffffffffffff8203614f4b57614f4a614aba565b5b600182019050919050565b7f5d00000000000000000000000000000000000000000000000000000000000000815250565b6000614f888284614eb9565b9150614f9382614f56565b60018201915081905092915050565b7f41726520796f75207265616c6c79206f776e6572206f662074686973204e465460008201527f3f00000000000000000000000000000000000000000000000000000000000000602082015250565b6000614ffe602183613c8b565b915061500982614fa2565b604082019050919050565b6000602082019050818103600083015261502d81614ff1565b9050919050565b7f45544820616d6f756e74206d7573742062652067726561746572207468616e2060008201527f3000000000000000000000000000000000000000000000000000000000000000602082015250565b6000615090602183613c8b565b915061509b82615034565b604082019050919050565b600060208201905081810360008301526150bf81615083565b9050919050565b600081905092915050565b50565b60006150e16000836150c6565b91506150ec826150d1565b600082019050919050565b6000615102826150d4565b9150819050919050565b7f4661696c656420746f2073656e64204554480000000000000000000000000000600082015250565b6000615142601283613c8b565b915061514d8261510c565b602082019050919050565b6000602082019050818103600083015261517181615135565b9050919050565b7f4e6f7420656e6f756768204554482073656e743b20636865636b20707269636560008201527f2100000000000000000000000000000000000000000000000000000000000000602082015250565b60006151d4602183613c8b565b91506151df82615178565b604082019050919050565b60006020820190508181036000830152615203816151c7565b9050919050565b7f4163746976697479206e6f7420617661696c61626c6521000000000000000000600082015250565b6000615240601783613c8b565b915061524b8261520a565b602082019050919050565b6000602082019050818103600083015261526f81615233565b9050919050565b7f4552433732313a207472616e736665722066726f6d20696e636f72726563742060008201527f6f776e6572000000000000000000000000000000000000000000000000000000602082015250565b60006152d2602583613c8b565b91506152dd82615276565b604082019050919050565b60006020820190508181036000830152615301816152c5565b9050919050565b7f4552433732313a207472616e7366657220746f20746865207a65726f2061646460008201527f7265737300000000000000000000000000000000000000000000000000000000602082015250565b6000615364602483613c8b565b915061536f82615308565b604082019050919050565b6000602082019050818103600083015261539381615357565b9050919050565b7f4552433732313a20617070726f766520746f2063616c6c657200000000000000600082015250565b60006153d0601983613c8b565b91506153db8261539a565b602082019050919050565b600060208201905081810360008301526153ff816153c3565b9050919050565b7f4552433732313a207472616e7366657220746f206e6f6e20455243373231526560008201527f63656976657220696d706c656d656e7465720000000000000000000000000000602082015250565b6000615462603283613c8b565b915061546d82615406565b604082019050919050565b6000602082019050818103600083015261549181615455565b9050919050565b60006154a382613c1d565b91506154ae83613c1d565b9250827fffffffffffffffffffffffffffffffffffffffffffffffffffffffffffffffff038211156154e3576154e2614aba565b5b828201905092915050565b7f4e487b7100000000000000000000000000000000000000000000000000000000600052601260045260246000fd5b600061552882613c1d565b915061553383613c1d565b925082615543576155426154ee565b5b828204905092915050565b600061555982613c1d565b915061556483613c1d565b9250817fffffffffffffffffffffffffffffffffffffffffffffffffffffffffffffffff048311821515161561559d5761559c614aba565b5b828202905092915050565b7f45524337323155524953746f726167653a2055524920736574206f66206e6f6e60008201527f6578697374656e7420746f6b656e000000000000000000000000000000000000602082015250565b6000615604602e83613c8b565b915061560f826155a8565b604082019050919050565b60006020820190508181036000830152615633816155f7565b9050919050565b7f416363657373436f6e74726f6c3a206163636f756e7420000000000000000000600082015250565b6000615670601783614b1d565b915061567b8261563a565b601782019050919050565b7f206973206d697373696e6720726f6c6520000000000000000000000000000000600082015250565b60006156bc601183614b1d565b91506156c782615686565b601182019050919050565b60006156dd82615663565b91506156e98285614eb9565b91506156f4826156af565b91506157008284614eb9565b91508190509392505050565b600081519050919050565b600082825260208201905092915050565b60006157338261570c565b61573d8185615717565b935061574d818560208601613c9c565b61575681613ccf565b840191505092915050565b60006080820190506157766000830187613d6d565b6157836020830186613d6d565b6157906040830185614067565b81810360608301526157a28184615728565b905095945050505050565b6000815190506157bc81613b8e565b92915050565b6000602082840312156157d8576157d7613b58565b5b60006157e6848285016157ad565b91505092915050565b7f4e487b7100000000000000000000000000000000000000000000000000000000600052603260045260246000fd5b600061582982613c1d565b91506000820361583c5761583b614aba565b5b600182039050919050565b7f537472696e67733a20686578206c656e67746820696e73756666696369656e74600082015250565b600061587d602083613c8b565b915061588882615847565b602082019050919050565b600060208201905081810360008301526158ac81615870565b9050919050565b7f4552433732313a206d696e7420746f20746865207a65726f2061646472657373600082015250565b60006158e9602083613c8b565b91506158f4826158b3565b602082019050919050565b60006020820190508181036000830152615918816158dc565b9050919050565b7f4552433732313a20746f6b656e20616c7265616479206d696e74656400000000600082015250565b6000615955601c83613c8b565b91506159608261591f565b602082019050919050565b6000602082019050818103600083015261598481615948565b905091905056fe4142434445464748494a4b4c4d4e4f505152535455565758595a6162636465666768696a6b6c6d6e6f707172737475767778797a303132333435363738392b2fa26469706673582212200e79e6990de73b220c3e77c5056ec4fe18ce6b615c22603a4bd421186f9d5dee64736f6c634300080d0033",
  "linkReferences": {},
  "deployedLinkReferences": {}
}